{
  "address": "0x65f1c73d9e1B01B2c540a71183C40BaEae6C8C25",
  "abi": [
    {
      "inputs": [],
      "stateMutability": "nonpayable",
      "type": "constructor"
    },
    {
      "anonymous": false,
      "inputs": [
        {
          "indexed": true,
          "internalType": "address",
          "name": "owner",
          "type": "address"
        },
        {
          "indexed": true,
          "internalType": "address",
          "name": "approved",
          "type": "address"
        },
        {
          "indexed": true,
          "internalType": "uint256",
          "name": "tokenId",
          "type": "uint256"
        }
      ],
      "name": "Approval",
      "type": "event"
    },
    {
      "anonymous": false,
      "inputs": [
        {
          "indexed": true,
          "internalType": "address",
          "name": "owner",
          "type": "address"
        },
        {
          "indexed": true,
          "internalType": "address",
          "name": "operator",
          "type": "address"
        },
        {
          "indexed": false,
          "internalType": "bool",
          "name": "approved",
          "type": "bool"
        }
      ],
      "name": "ApprovalForAll",
      "type": "event"
    },
    {
      "anonymous": false,
      "inputs": [
        {
          "indexed": false,
          "internalType": "uint256",
          "name": "_fromTokenId",
          "type": "uint256"
        },
        {
          "indexed": false,
          "internalType": "uint256",
          "name": "_toTokenId",
          "type": "uint256"
        }
      ],
      "name": "BatchMetadataUpdate",
      "type": "event"
    },
    {
      "anonymous": false,
      "inputs": [
        {
          "indexed": false,
          "internalType": "uint256",
          "name": "_tokenId",
          "type": "uint256"
        }
      ],
      "name": "MetadataUpdate",
      "type": "event"
    },
    {
      "anonymous": false,
      "inputs": [
        {
          "indexed": true,
          "internalType": "bytes32",
          "name": "role",
          "type": "bytes32"
        },
        {
          "indexed": true,
          "internalType": "bytes32",
          "name": "previousAdminRole",
          "type": "bytes32"
        },
        {
          "indexed": true,
          "internalType": "bytes32",
          "name": "newAdminRole",
          "type": "bytes32"
        }
      ],
      "name": "RoleAdminChanged",
      "type": "event"
    },
    {
      "anonymous": false,
      "inputs": [
        {
          "indexed": true,
          "internalType": "bytes32",
          "name": "role",
          "type": "bytes32"
        },
        {
          "indexed": true,
          "internalType": "address",
          "name": "account",
          "type": "address"
        },
        {
          "indexed": true,
          "internalType": "address",
          "name": "sender",
          "type": "address"
        }
      ],
      "name": "RoleGranted",
      "type": "event"
    },
    {
      "anonymous": false,
      "inputs": [
        {
          "indexed": true,
          "internalType": "bytes32",
          "name": "role",
          "type": "bytes32"
        },
        {
          "indexed": true,
          "internalType": "address",
          "name": "account",
          "type": "address"
        },
        {
          "indexed": true,
          "internalType": "address",
          "name": "sender",
          "type": "address"
        }
      ],
      "name": "RoleRevoked",
      "type": "event"
    },
    {
      "anonymous": false,
      "inputs": [
        {
          "indexed": true,
          "internalType": "address",
          "name": "from",
          "type": "address"
        },
        {
          "indexed": true,
          "internalType": "address",
          "name": "to",
          "type": "address"
        },
        {
          "indexed": true,
          "internalType": "uint256",
          "name": "tokenId",
          "type": "uint256"
        }
      ],
      "name": "Transfer",
      "type": "event"
    },
    {
      "inputs": [],
      "name": "DEFAULT_ADMIN_ROLE",
      "outputs": [
        {
          "internalType": "bytes32",
          "name": "",
          "type": "bytes32"
        }
      ],
      "stateMutability": "view",
      "type": "function"
    },
    {
      "inputs": [],
      "name": "MINTER_ROLE",
      "outputs": [
        {
          "internalType": "bytes32",
          "name": "",
          "type": "bytes32"
        }
      ],
      "stateMutability": "view",
      "type": "function"
    },
    {
      "inputs": [
        {
          "internalType": "address",
          "name": "to",
          "type": "address"
        },
        {
          "internalType": "uint256",
          "name": "tokenId",
          "type": "uint256"
        }
      ],
      "name": "approve",
      "outputs": [],
      "stateMutability": "nonpayable",
      "type": "function"
    },
    {
      "inputs": [
        {
          "internalType": "address",
          "name": "owner",
          "type": "address"
        }
      ],
      "name": "balanceOf",
      "outputs": [
        {
          "internalType": "uint256",
          "name": "",
          "type": "uint256"
        }
      ],
      "stateMutability": "view",
      "type": "function"
    },
    {
      "inputs": [
        {
          "internalType": "uint256",
          "name": "tokenId",
          "type": "uint256"
        }
      ],
      "name": "getApproved",
      "outputs": [
        {
          "internalType": "address",
          "name": "",
          "type": "address"
        }
      ],
      "stateMutability": "view",
      "type": "function"
    },
    {
      "inputs": [
        {
          "internalType": "bytes32",
          "name": "role",
          "type": "bytes32"
        }
      ],
      "name": "getRoleAdmin",
      "outputs": [
        {
          "internalType": "bytes32",
          "name": "",
          "type": "bytes32"
        }
      ],
      "stateMutability": "view",
      "type": "function"
    },
    {
      "inputs": [
        {
          "internalType": "bytes32",
          "name": "role",
          "type": "bytes32"
        },
        {
          "internalType": "address",
          "name": "account",
          "type": "address"
        }
      ],
      "name": "grantRole",
      "outputs": [],
      "stateMutability": "nonpayable",
      "type": "function"
    },
    {
      "inputs": [
        {
          "internalType": "bytes32",
          "name": "role",
          "type": "bytes32"
        },
        {
          "internalType": "address",
          "name": "account",
          "type": "address"
        }
      ],
      "name": "hasRole",
      "outputs": [
        {
          "internalType": "bool",
          "name": "",
          "type": "bool"
        }
      ],
      "stateMutability": "view",
      "type": "function"
    },
    {
      "inputs": [
        {
          "internalType": "address",
          "name": "owner",
          "type": "address"
        },
        {
          "internalType": "address",
          "name": "operator",
          "type": "address"
        }
      ],
      "name": "isApprovedForAll",
      "outputs": [
        {
          "internalType": "bool",
          "name": "",
          "type": "bool"
        }
      ],
      "stateMutability": "view",
      "type": "function"
    },
    {
      "inputs": [],
      "name": "name",
      "outputs": [
        {
          "internalType": "string",
          "name": "",
          "type": "string"
        }
      ],
      "stateMutability": "view",
      "type": "function"
    },
    {
      "inputs": [
        {
          "internalType": "uint256",
          "name": "tokenId",
          "type": "uint256"
        }
      ],
      "name": "ownerOf",
      "outputs": [
        {
          "internalType": "address",
          "name": "",
          "type": "address"
        }
      ],
      "stateMutability": "view",
      "type": "function"
    },
    {
      "inputs": [
        {
          "internalType": "bytes32",
          "name": "role",
          "type": "bytes32"
        },
        {
          "internalType": "address",
          "name": "account",
          "type": "address"
        }
      ],
      "name": "renounceRole",
      "outputs": [],
      "stateMutability": "nonpayable",
      "type": "function"
    },
    {
      "inputs": [
        {
          "internalType": "bytes32",
          "name": "role",
          "type": "bytes32"
        },
        {
          "internalType": "address",
          "name": "account",
          "type": "address"
        }
      ],
      "name": "revokeRole",
      "outputs": [],
      "stateMutability": "nonpayable",
      "type": "function"
    },
    {
      "inputs": [
        {
          "internalType": "address",
          "name": "to",
          "type": "address"
        },
        {
          "internalType": "string",
          "name": "uri",
          "type": "string"
        }
      ],
      "name": "safeMint",
      "outputs": [],
      "stateMutability": "nonpayable",
      "type": "function"
    },
    {
      "inputs": [
        {
          "internalType": "address",
          "name": "from",
          "type": "address"
        },
        {
          "internalType": "address",
          "name": "to",
          "type": "address"
        },
        {
          "internalType": "uint256",
          "name": "tokenId",
          "type": "uint256"
        }
      ],
      "name": "safeTransferFrom",
      "outputs": [],
      "stateMutability": "nonpayable",
      "type": "function"
    },
    {
      "inputs": [
        {
          "internalType": "address",
          "name": "from",
          "type": "address"
        },
        {
          "internalType": "address",
          "name": "to",
          "type": "address"
        },
        {
          "internalType": "uint256",
          "name": "tokenId",
          "type": "uint256"
        },
        {
          "internalType": "bytes",
          "name": "data",
          "type": "bytes"
        }
      ],
      "name": "safeTransferFrom",
      "outputs": [],
      "stateMutability": "nonpayable",
      "type": "function"
    },
    {
      "inputs": [
        {
          "internalType": "address",
          "name": "operator",
          "type": "address"
        },
        {
          "internalType": "bool",
          "name": "approved",
          "type": "bool"
        }
      ],
      "name": "setApprovalForAll",
      "outputs": [],
      "stateMutability": "nonpayable",
      "type": "function"
    },
    {
      "inputs": [
        {
          "internalType": "bytes4",
          "name": "interfaceId",
          "type": "bytes4"
        }
      ],
      "name": "supportsInterface",
      "outputs": [
        {
          "internalType": "bool",
          "name": "",
          "type": "bool"
        }
      ],
      "stateMutability": "view",
      "type": "function"
    },
    {
      "inputs": [],
      "name": "symbol",
      "outputs": [
        {
          "internalType": "string",
          "name": "",
          "type": "string"
        }
      ],
      "stateMutability": "view",
      "type": "function"
    },
    {
      "inputs": [
        {
          "internalType": "uint256",
          "name": "tokenId",
          "type": "uint256"
        }
      ],
      "name": "tokenURI",
      "outputs": [
        {
          "internalType": "string",
          "name": "",
          "type": "string"
        }
      ],
      "stateMutability": "view",
      "type": "function"
    },
    {
      "inputs": [
        {
          "internalType": "address",
          "name": "from",
          "type": "address"
        },
        {
          "internalType": "address",
          "name": "to",
          "type": "address"
        },
        {
          "internalType": "uint256",
          "name": "tokenId",
          "type": "uint256"
        }
      ],
      "name": "transferFrom",
      "outputs": [],
      "stateMutability": "nonpayable",
      "type": "function"
    }
  ],
  "transactionHash": "0x868dae8568f73e1ed473b1d8f07c799fdd83a6673da557f15f82288b53118665",
  "args": [],
  "numDeployments": 1,
  "solcInputHash": "cf15b58a4e270a43f23034abe460ca08",
  "bytecode": "0x60806040523480156200001157600080fd5b506040518060400160405280600781526020017f54657374373231000000000000000000000000000000000000000000000000008152506040518060400160405280600481526020017f543732310000000000000000000000000000000000000000000000000000000081525081600090816200008f91906200108a565b508060019081620000a191906200108a565b505050620000c86000801b620000bc620002e760201b60201c565b620002ef60201b60201c565b620001097f9f2df0fed2c77648de5860a4cc508cd0818c85b8b8a1ab4ceeef8d981c8956a6620000fd620002e760201b60201c565b620002ef60201b60201c565b60016008819055506200014b62000125620002e760201b60201c565b6040518060800160405280605c81526020016200503a605c9139620003e160201b60201c565b620001856200015f620002e760201b60201c565b6040518060c00160405280608e815260200162005096608e9139620003e160201b60201c565b620001bf62000199620002e760201b60201c565b6040518060800160405280605c81526020016200503a605c9139620003e160201b60201c565b620001f9620001d3620002e760201b60201c565b6040518060c00160405280608e815260200162005096608e9139620003e160201b60201c565b620002336200020d620002e760201b60201c565b6040518060800160405280605c81526020016200503a605c9139620003e160201b60201c565b6200026d62000247620002e760201b60201c565b6040518060c00160405280608e815260200162005096608e9139620003e160201b60201c565b620002a762000281620002e760201b60201c565b6040518060800160405280605c81526020016200503a605c9139620003e160201b60201c565b620002e1620002bb620002e760201b60201c565b6040518060c00160405280608e815260200162005096608e9139620003e160201b60201c565b620018e5565b600033905090565b6200030182826200045a60201b60201c565b620003dd5760016007600084815260200190815260200160002060000160008373ffffffffffffffffffffffffffffffffffffffff1673ffffffffffffffffffffffffffffffffffffffff16815260200190815260200160002060006101000a81548160ff02191690831515021790555062000382620002e760201b60201c565b73ffffffffffffffffffffffffffffffffffffffff168173ffffffffffffffffffffffffffffffffffffffff16837f2f8788117e7eff1d82e926ec794901d17c78024a50270940304540a733656f0d60405160405180910390a45b5050565b7f9f2df0fed2c77648de5860a4cc508cd0818c85b8b8a1ab4ceeef8d981c8956a66200041381620004c560201b60201c565b6000600860008154809291906200042a90620011a0565b919050559050620004428482620004e960201b60201c565b6200045481846200050f60201b60201c565b50505050565b60006007600084815260200190815260200160002060000160008373ffffffffffffffffffffffffffffffffffffffff1673ffffffffffffffffffffffffffffffffffffffff16815260200190815260200160002060009054906101000a900460ff16905092915050565b620004e681620004da620002e760201b60201c565b620005c260201b60201c565b50565b6200050b8282604051806020016040528060008152506200066e60201b60201c565b5050565b6200052082620006dc60201b60201c565b62000562576040517f08c379a0000000000000000000000000000000000000000000000000000000008152600401620005599062001274565b60405180910390fd5b806006600084815260200190815260200160002090816200058491906200108a565b507ff8e1a15aba9398e019f0b49df1a4fde98ee17ae345cb5f6b5e2c27f5033e8ce782604051620005b69190620012a7565b60405180910390a15050565b620005d482826200045a60201b60201c565b6200066a57620005ef816200072560201b62000b781760201c565b6200060a8360001c60206200075a60201b62000ba51760201c565b6040516020016200061d929190620013d2565b6040516020818303038152906040526040517f08c379a000000000000000000000000000000000000000000000000000000000815260040162000661919062001466565b60405180910390fd5b5050565b620006808383620009b560201b60201c565b62000695600084848462000bfb60201b60201c565b620006d7576040517f08c379a0000000000000000000000000000000000000000000000000000000008152600401620006ce9062001500565b60405180910390fd5b505050565b60008073ffffffffffffffffffffffffffffffffffffffff16620007068362000da460201b60201c565b73ffffffffffffffffffffffffffffffffffffffff1614159050919050565b6060620007538273ffffffffffffffffffffffffffffffffffffffff16601460ff166200075a60201b60201c565b9050919050565b6060600060028360026200076f919062001522565b6200077b91906200156d565b67ffffffffffffffff81111562000797576200079662000e1b565b5b6040519080825280601f01601f191660200182016040528015620007ca5781602001600182028036833780820191505090505b5090507f300000000000000000000000000000000000000000000000000000000000000081600081518110620008055762000804620015a8565b5b60200101907effffffffffffffffffffffffffffffffffffffffffffffffffffffffffffff1916908160001a9053507f7800000000000000000000000000000000000000000000000000000000000000816001815181106200086c576200086b620015a8565b5b60200101907effffffffffffffffffffffffffffffffffffffffffffffffffffffffffffff1916908160001a90535060006001846002620008ae919062001522565b620008ba91906200156d565b90505b600181111562000964577f3031323334353637383961626364656600000000000000000000000000000000600f8616601081106200090057620008ff620015a8565b5b1a60f81b8282815181106200091a5762000919620015a8565b5b60200101907effffffffffffffffffffffffffffffffffffffffffffffffffffffffffffff1916908160001a905350600485901c9450806200095c90620015d7565b9050620008bd565b5060008414620009ab576040517f08c379a0000000000000000000000000000000000000000000000000000000008152600401620009a29062001655565b60405180910390fd5b8091505092915050565b600073ffffffffffffffffffffffffffffffffffffffff168273ffffffffffffffffffffffffffffffffffffffff160362000a27576040517f08c379a000000000000000000000000000000000000000000000000000000000815260040162000a1e90620016c7565b60405180910390fd5b62000a3881620006dc60201b60201c565b1562000a7b576040517f08c379a000000000000000000000000000000000000000000000000000000000815260040162000a729062001739565b60405180910390fd5b62000a9160008383600162000de160201b60201c565b62000aa281620006dc60201b60201c565b1562000ae5576040517f08c379a000000000000000000000000000000000000000000000000000000000815260040162000adc9062001739565b60405180910390fd5b6001600360008473ffffffffffffffffffffffffffffffffffffffff1673ffffffffffffffffffffffffffffffffffffffff16815260200190815260200160002060008282540192505081905550816002600083815260200190815260200160002060006101000a81548173ffffffffffffffffffffffffffffffffffffffff021916908373ffffffffffffffffffffffffffffffffffffffff160217905550808273ffffffffffffffffffffffffffffffffffffffff16600073ffffffffffffffffffffffffffffffffffffffff167fddf252ad1be2c89b69c2b068fc378daa952ba7f163c4a11628f55a4df523b3ef60405160405180910390a462000bf760008383600162000de760201b60201c565b5050565b600062000c298473ffffffffffffffffffffffffffffffffffffffff1662000ded60201b62000de11760201c565b1562000d97578373ffffffffffffffffffffffffffffffffffffffff1663150b7a0262000c5b620002e760201b60201c565b8786866040518563ffffffff1660e01b815260040162000c7f9493929190620017fd565b6020604051808303816000875af192505050801562000cbe57506040513d601f19601f8201168201806040525081019062000cbb9190620018b3565b60015b62000d46573d806000811462000cf1576040519150601f19603f3d011682016040523d82523d6000602084013e62000cf6565b606091505b50600081510362000d3e576040517f08c379a000000000000000000000000000000000000000000000000000000000815260040162000d359062001500565b60405180910390fd5b805181602001fd5b63150b7a0260e01b7bffffffffffffffffffffffffffffffffffffffffffffffffffffffff1916817bffffffffffffffffffffffffffffffffffffffffffffffffffffffff19161491505062000d9c565b600190505b949350505050565b60006002600083815260200190815260200160002060009054906101000a900473ffffffffffffffffffffffffffffffffffffffff169050919050565b50505050565b50505050565b6000808273ffffffffffffffffffffffffffffffffffffffff163b119050919050565b600081519050919050565b7f4e487b7100000000000000000000000000000000000000000000000000000000600052604160045260246000fd5b7f4e487b7100000000000000000000000000000000000000000000000000000000600052602260045260246000fd5b6000600282049050600182168062000e9257607f821691505b60208210810362000ea85762000ea762000e4a565b5b50919050565b60008190508160005260206000209050919050565b60006020601f8301049050919050565b600082821b905092915050565b60006008830262000f127fffffffffffffffffffffffffffffffffffffffffffffffffffffffffffffffff8262000ed3565b62000f1e868362000ed3565b95508019841693508086168417925050509392505050565b6000819050919050565b6000819050919050565b600062000f6b62000f6562000f5f8462000f36565b62000f40565b62000f36565b9050919050565b6000819050919050565b62000f878362000f4a565b62000f9f62000f968262000f72565b84845462000ee0565b825550505050565b600090565b62000fb662000fa7565b62000fc381848462000f7c565b505050565b5b8181101562000feb5762000fdf60008262000fac565b60018101905062000fc9565b5050565b601f8211156200103a57620010048162000eae565b6200100f8462000ec3565b810160208510156200101f578190505b620010376200102e8562000ec3565b83018262000fc8565b50505b505050565b600082821c905092915050565b60006200105f600019846008026200103f565b1980831691505092915050565b60006200107a83836200104c565b9150826002028217905092915050565b620010958262000e10565b67ffffffffffffffff811115620010b157620010b062000e1b565b5b620010bd825462000e79565b620010ca82828562000fef565b600060209050601f831160018114620011025760008415620010ed578287015190505b620010f985826200106c565b86555062001169565b601f198416620011128662000eae565b60005b828110156200113c5784890151825560018201915060208501945060208101905062001115565b868310156200115c578489015162001158601f8916826200104c565b8355505b6001600288020188555050505b505050505050565b7f4e487b7100000000000000000000000000000000000000000000000000000000600052601160045260246000fd5b6000620011ad8262000f36565b91507fffffffffffffffffffffffffffffffffffffffffffffffffffffffffffffffff8203620011e257620011e162001171565b5b600182019050919050565b600082825260208201905092915050565b7f45524337323155524953746f726167653a2055524920736574206f66206e6f6e60008201527f6578697374656e7420746f6b656e000000000000000000000000000000000000602082015250565b60006200125c602e83620011ed565b91506200126982620011fe565b604082019050919050565b600060208201905081810360008301526200128f816200124d565b9050919050565b620012a18162000f36565b82525050565b6000602082019050620012be600083018462001296565b92915050565b600081905092915050565b7f416363657373436f6e74726f6c3a206163636f756e7420000000000000000000600082015250565b600062001307601783620012c4565b91506200131482620012cf565b601782019050919050565b60005b838110156200133f57808201518184015260208101905062001322565b60008484015250505050565b6000620013588262000e10565b620013648185620012c4565b9350620013768185602086016200131f565b80840191505092915050565b7f206973206d697373696e6720726f6c6520000000000000000000000000000000600082015250565b6000620013ba601183620012c4565b9150620013c78262001382565b601182019050919050565b6000620013df82620012f8565b9150620013ed82856200134b565b9150620013fa82620013ab565b91506200140882846200134b565b91508190509392505050565b6000601f19601f8301169050919050565b6000620014328262000e10565b6200143e8185620011ed565b9350620014508185602086016200131f565b6200145b8162001414565b840191505092915050565b6000602082019050818103600083015262001482818462001425565b905092915050565b7f4552433732313a207472616e7366657220746f206e6f6e20455243373231526560008201527f63656976657220696d706c656d656e7465720000000000000000000000000000602082015250565b6000620014e8603283620011ed565b9150620014f5826200148a565b604082019050919050565b600060208201905081810360008301526200151b81620014d9565b9050919050565b60006200152f8262000f36565b91506200153c8362000f36565b92508282026200154c8162000f36565b9150828204841483151762001566576200156562001171565b5b5092915050565b60006200157a8262000f36565b9150620015878362000f36565b9250828201905080821115620015a257620015a162001171565b5b92915050565b7f4e487b7100000000000000000000000000000000000000000000000000000000600052603260045260246000fd5b6000620015e48262000f36565b915060008203620015fa57620015f962001171565b5b600182039050919050565b7f537472696e67733a20686578206c656e67746820696e73756666696369656e74600082015250565b60006200163d602083620011ed565b91506200164a8262001605565b602082019050919050565b6000602082019050818103600083015262001670816200162e565b9050919050565b7f4552433732313a206d696e7420746f20746865207a65726f2061646472657373600082015250565b6000620016af602083620011ed565b9150620016bc8262001677565b602082019050919050565b60006020820190508181036000830152620016e281620016a0565b9050919050565b7f4552433732313a20746f6b656e20616c7265616479206d696e74656400000000600082015250565b600062001721601c83620011ed565b91506200172e82620016e9565b602082019050919050565b60006020820190508181036000830152620017548162001712565b9050919050565b600073ffffffffffffffffffffffffffffffffffffffff82169050919050565b600062001788826200175b565b9050919050565b6200179a816200177b565b82525050565b600081519050919050565b600082825260208201905092915050565b6000620017c982620017a0565b620017d58185620017ab565b9350620017e78185602086016200131f565b620017f28162001414565b840191505092915050565b60006080820190506200181460008301876200178f565b6200182360208301866200178f565b62001832604083018562001296565b8181036060830152620018468184620017bc565b905095945050505050565b600080fd5b60007fffffffff0000000000000000000000000000000000000000000000000000000082169050919050565b6200188d8162001856565b81146200189957600080fd5b50565b600081519050620018ad8162001882565b92915050565b600060208284031215620018cc57620018cb62001851565b5b6000620018dc848285016200189c565b91505092915050565b61374580620018f56000396000f3fe608060405234801561001057600080fd5b50600436106101375760003560e01c806370a08231116100b8578063b88d4fde1161007c578063b88d4fde1461035e578063c87b56dd1461037a578063d204c45e146103aa578063d5391393146103c6578063d547741f146103e4578063e985e9c51461040057610137565b806370a08231146102a657806391d14854146102d657806395d89b4114610306578063a217fddf14610324578063a22cb4651461034257610137565b8063248a9ca3116100ff578063248a9ca3146101f25780632f2ff15d1461022257806336568abe1461023e57806342842e0e1461025a5780636352211e1461027657610137565b806301ffc9a71461013c57806306fdde031461016c578063081812fc1461018a578063095ea7b3146101ba57806323b872dd146101d6575b600080fd5b61015660048036038101906101519190612252565b610430565b604051610163919061229a565b60405180910390f35b610174610442565b6040516101819190612345565b60405180910390f35b6101a4600480360381019061019f919061239d565b6104d4565b6040516101b1919061240b565b60405180910390f35b6101d460048036038101906101cf9190612452565b61051a565b005b6101f060048036038101906101eb9190612492565b610631565b005b61020c6004803603810190610207919061251b565b610691565b6040516102199190612557565b60405180910390f35b61023c60048036038101906102379190612572565b6106b1565b005b61025860048036038101906102539190612572565b6106d2565b005b610274600480360381019061026f9190612492565b610755565b005b610290600480360381019061028b919061239d565b610775565b60405161029d919061240b565b60405180910390f35b6102c060048036038101906102bb91906125b2565b6107fb565b6040516102cd91906125ee565b60405180910390f35b6102f060048036038101906102eb9190612572565b6108b2565b6040516102fd919061229a565b60405180910390f35b61030e61091d565b60405161031b9190612345565b60405180910390f35b61032c6109af565b6040516103399190612557565b60405180910390f35b61035c60048036038101906103579190612635565b6109b6565b005b610378600480360381019061037391906127aa565b6109cc565b005b610394600480360381019061038f919061239d565b610a2e565b6040516103a19190612345565b60405180910390f35b6103c460048036038101906103bf91906128ce565b610a40565b005b6103ce610a9f565b6040516103db9190612557565b60405180910390f35b6103fe60048036038101906103f99190612572565b610ac3565b005b61041a6004803603810190610415919061292a565b610ae4565b604051610427919061229a565b60405180910390f35b600061043b82610e04565b9050919050565b60606000805461045190612999565b80601f016020809104026020016040519081016040528092919081815260200182805461047d90612999565b80156104ca5780601f1061049f576101008083540402835291602001916104ca565b820191906000526020600020905b8154815290600101906020018083116104ad57829003601f168201915b5050505050905090565b60006104df82610e7e565b6004600083815260200190815260200160002060009054906101000a900473ffffffffffffffffffffffffffffffffffffffff169050919050565b600061052582610775565b90508073ffffffffffffffffffffffffffffffffffffffff168373ffffffffffffffffffffffffffffffffffffffff1603610595576040517f08c379a000000000000000000000000000000000000000000000000000000000815260040161058c90612a3c565b60405180910390fd5b8073ffffffffffffffffffffffffffffffffffffffff166105b4610ec9565b73ffffffffffffffffffffffffffffffffffffffff1614806105e357506105e2816105dd610ec9565b610ae4565b5b610622576040517f08c379a000000000000000000000000000000000000000000000000000000000815260040161061990612ace565b60405180910390fd5b61062c8383610ed1565b505050565b61064261063c610ec9565b82610f8a565b610681576040517f08c379a000000000000000000000000000000000000000000000000000000000815260040161067890612b60565b60405180910390fd5b61068c83838361101f565b505050565b600060076000838152602001908152602001600020600101549050919050565b6106ba82610691565b6106c381611318565b6106cd838361132c565b505050565b6106da610ec9565b73ffffffffffffffffffffffffffffffffffffffff168173ffffffffffffffffffffffffffffffffffffffff1614610747576040517f08c379a000000000000000000000000000000000000000000000000000000000815260040161073e90612bf2565b60405180910390fd5b610751828261140d565b5050565b610770838383604051806020016040528060008152506109cc565b505050565b600080610781836114ef565b9050600073ffffffffffffffffffffffffffffffffffffffff168173ffffffffffffffffffffffffffffffffffffffff16036107f2576040517f08c379a00000000000000000000000000000000000000000000000000000000081526004016107e990612c5e565b60405180910390fd5b80915050919050565b60008073ffffffffffffffffffffffffffffffffffffffff168273ffffffffffffffffffffffffffffffffffffffff160361086b576040517f08c379a000000000000000000000000000000000000000000000000000000000815260040161086290612cf0565b60405180910390fd5b600360008373ffffffffffffffffffffffffffffffffffffffff1673ffffffffffffffffffffffffffffffffffffffff168152602001908152602001600020549050919050565b60006007600084815260200190815260200160002060000160008373ffffffffffffffffffffffffffffffffffffffff1673ffffffffffffffffffffffffffffffffffffffff16815260200190815260200160002060009054906101000a900460ff16905092915050565b60606001805461092c90612999565b80601f016020809104026020016040519081016040528092919081815260200182805461095890612999565b80156109a55780601f1061097a576101008083540402835291602001916109a5565b820191906000526020600020905b81548152906001019060200180831161098857829003601f168201915b5050505050905090565b6000801b81565b6109c86109c1610ec9565b838361152c565b5050565b6109dd6109d7610ec9565b83610f8a565b610a1c576040517f08c379a0000000000000000000000000000000000000000000000000000000008152600401610a1390612b60565b60405180910390fd5b610a2884848484611698565b50505050565b6060610a39826116f4565b9050919050565b7f9f2df0fed2c77648de5860a4cc508cd0818c85b8b8a1ab4ceeef8d981c8956a6610a6a81611318565b600060086000815480929190610a7f90612d3f565b919050559050610a8f8482611806565b610a998184611824565b50505050565b7f9f2df0fed2c77648de5860a4cc508cd0818c85b8b8a1ab4ceeef8d981c8956a681565b610acc82610691565b610ad581611318565b610adf838361140d565b505050565b6000600560008473ffffffffffffffffffffffffffffffffffffffff1673ffffffffffffffffffffffffffffffffffffffff16815260200190815260200160002060008373ffffffffffffffffffffffffffffffffffffffff1673ffffffffffffffffffffffffffffffffffffffff16815260200190815260200160002060009054906101000a900460ff16905092915050565b6060610b9e8273ffffffffffffffffffffffffffffffffffffffff16601460ff16610ba5565b9050919050565b606060006002836002610bb89190612d87565b610bc29190612dc9565b67ffffffffffffffff811115610bdb57610bda61267f565b5b6040519080825280601f01601f191660200182016040528015610c0d5781602001600182028036833780820191505090505b5090507f300000000000000000000000000000000000000000000000000000000000000081600081518110610c4557610c44612dfd565b5b60200101907effffffffffffffffffffffffffffffffffffffffffffffffffffffffffffff1916908160001a9053507f780000000000000000000000000000000000000000000000000000000000000081600181518110610ca957610ca8612dfd565b5b60200101907effffffffffffffffffffffffffffffffffffffffffffffffffffffffffffff1916908160001a90535060006001846002610ce99190612d87565b610cf39190612dc9565b90505b6001811115610d93577f3031323334353637383961626364656600000000000000000000000000000000600f861660108110610d3557610d34612dfd565b5b1a60f81b828281518110610d4c57610d4b612dfd565b5b60200101907effffffffffffffffffffffffffffffffffffffffffffffffffffffffffffff1916908160001a905350600485901c945080610d8c90612e2c565b9050610cf6565b5060008414610dd7576040517f08c379a0000000000000000000000000000000000000000000000000000000008152600401610dce90612ea1565b60405180910390fd5b8091505092915050565b6000808273ffffffffffffffffffffffffffffffffffffffff163b119050919050565b60007f7965db0b000000000000000000000000000000000000000000000000000000007bffffffffffffffffffffffffffffffffffffffffffffffffffffffff1916827bffffffffffffffffffffffffffffffffffffffffffffffffffffffff19161480610e775750610e76826118c8565b5b9050919050565b610e8781611929565b610ec6576040517f08c379a0000000000000000000000000000000000000000000000000000000008152600401610ebd90612c5e565b60405180910390fd5b50565b600033905090565b816004600083815260200190815260200160002060006101000a81548173ffffffffffffffffffffffffffffffffffffffff021916908373ffffffffffffffffffffffffffffffffffffffff160217905550808273ffffffffffffffffffffffffffffffffffffffff16610f4483610775565b73ffffffffffffffffffffffffffffffffffffffff167f8c5be1e5ebec7d5bd14f71427d1e84f3dd0314c0f7b2291e5b200ac8c7c3b92560405160405180910390a45050565b600080610f9683610775565b90508073ffffffffffffffffffffffffffffffffffffffff168473ffffffffffffffffffffffffffffffffffffffff161480610fd85750610fd78185610ae4565b5b8061101657508373ffffffffffffffffffffffffffffffffffffffff16610ffe846104d4565b73ffffffffffffffffffffffffffffffffffffffff16145b91505092915050565b8273ffffffffffffffffffffffffffffffffffffffff1661103f82610775565b73ffffffffffffffffffffffffffffffffffffffff1614611095576040517f08c379a000000000000000000000000000000000000000000000000000000000815260040161108c90612f33565b60405180910390fd5b600073ffffffffffffffffffffffffffffffffffffffff168273ffffffffffffffffffffffffffffffffffffffff1603611104576040517f08c379a00000000000000000000000000000000000000000000000000000000081526004016110fb90612fc5565b60405180910390fd5b611111838383600161196a565b8273ffffffffffffffffffffffffffffffffffffffff1661113182610775565b73ffffffffffffffffffffffffffffffffffffffff1614611187576040517f08c379a000000000000000000000000000000000000000000000000000000000815260040161117e90612f33565b60405180910390fd5b6004600082815260200190815260200160002060006101000a81549073ffffffffffffffffffffffffffffffffffffffff02191690556001600360008573ffffffffffffffffffffffffffffffffffffffff1673ffffffffffffffffffffffffffffffffffffffff168152602001908152602001600020600082825403925050819055506001600360008473ffffffffffffffffffffffffffffffffffffffff1673ffffffffffffffffffffffffffffffffffffffff16815260200190815260200160002060008282540192505081905550816002600083815260200190815260200160002060006101000a81548173ffffffffffffffffffffffffffffffffffffffff021916908373ffffffffffffffffffffffffffffffffffffffff160217905550808273ffffffffffffffffffffffffffffffffffffffff168473ffffffffffffffffffffffffffffffffffffffff167fddf252ad1be2c89b69c2b068fc378daa952ba7f163c4a11628f55a4df523b3ef60405160405180910390a46113138383836001611970565b505050565b61132981611324610ec9565b611976565b50565b61133682826108b2565b6114095760016007600084815260200190815260200160002060000160008373ffffffffffffffffffffffffffffffffffffffff1673ffffffffffffffffffffffffffffffffffffffff16815260200190815260200160002060006101000a81548160ff0219169083151502179055506113ae610ec9565b73ffffffffffffffffffffffffffffffffffffffff168173ffffffffffffffffffffffffffffffffffffffff16837f2f8788117e7eff1d82e926ec794901d17c78024a50270940304540a733656f0d60405160405180910390a45b5050565b61141782826108b2565b156114eb5760006007600084815260200190815260200160002060000160008373ffffffffffffffffffffffffffffffffffffffff1673ffffffffffffffffffffffffffffffffffffffff16815260200190815260200160002060006101000a81548160ff021916908315150217905550611490610ec9565b73ffffffffffffffffffffffffffffffffffffffff168173ffffffffffffffffffffffffffffffffffffffff16837ff6391f5c32d9c69d2a47ea670b442974b53935d1edc7fd64eb21e047a839171b60405160405180910390a45b5050565b60006002600083815260200190815260200160002060009054906101000a900473ffffffffffffffffffffffffffffffffffffffff169050919050565b8173ffffffffffffffffffffffffffffffffffffffff168373ffffffffffffffffffffffffffffffffffffffff160361159a576040517f08c379a000000000000000000000000000000000000000000000000000000000815260040161159190613031565b60405180910390fd5b80600560008573ffffffffffffffffffffffffffffffffffffffff1673ffffffffffffffffffffffffffffffffffffffff16815260200190815260200160002060008473ffffffffffffffffffffffffffffffffffffffff1673ffffffffffffffffffffffffffffffffffffffff16815260200190815260200160002060006101000a81548160ff0219169083151502179055508173ffffffffffffffffffffffffffffffffffffffff168373ffffffffffffffffffffffffffffffffffffffff167f17307eab39ab6107e8899845ad3d59bd9653f200f220920489ca2b5937696c318360405161168b919061229a565b60405180910390a3505050565b6116a384848461101f565b6116af848484846119fb565b6116ee576040517f08c379a00000000000000000000000000000000000000000000000000000000081526004016116e5906130c3565b60405180910390fd5b50505050565b60606116ff82610e7e565b600060066000848152602001908152602001600020805461171f90612999565b80601f016020809104026020016040519081016040528092919081815260200182805461174b90612999565b80156117985780601f1061176d57610100808354040283529160200191611798565b820191906000526020600020905b81548152906001019060200180831161177b57829003601f168201915b5050505050905060006117a9611b82565b905060008151036117be578192505050611801565b6000825111156117f35780826040516020016117db92919061311f565b60405160208183030381529060405292505050611801565b6117fc84611b99565b925050505b919050565b611820828260405180602001604052806000815250611c01565b5050565b61182d82611929565b61186c576040517f08c379a0000000000000000000000000000000000000000000000000000000008152600401611863906131b5565b60405180910390fd5b8060066000848152602001908152602001600020908161188c9190613381565b507ff8e1a15aba9398e019f0b49df1a4fde98ee17ae345cb5f6b5e2c27f5033e8ce7826040516118bc91906125ee565b60405180910390a15050565b6000634906490660e01b7bffffffffffffffffffffffffffffffffffffffffffffffffffffffff1916827bffffffffffffffffffffffffffffffffffffffffffffffffffffffff19161480611922575061192182611c5c565b5b9050919050565b60008073ffffffffffffffffffffffffffffffffffffffff1661194b836114ef565b73ffffffffffffffffffffffffffffffffffffffff1614159050919050565b50505050565b50505050565b61198082826108b2565b6119f75761198d81610b78565b61199b8360001c6020610ba5565b6040516020016119ac9291906134eb565b6040516020818303038152906040526040517f08c379a00000000000000000000000000000000000000000000000000000000081526004016119ee9190612345565b60405180910390fd5b5050565b6000611a1c8473ffffffffffffffffffffffffffffffffffffffff16610de1565b15611b75578373ffffffffffffffffffffffffffffffffffffffff1663150b7a02611a45610ec9565b8786866040518563ffffffff1660e01b8152600401611a67949392919061357a565b6020604051808303816000875af1925050508015611aa357506040513d601f19601f82011682018060405250810190611aa091906135db565b60015b611b25573d8060008114611ad3576040519150601f19603f3d011682016040523d82523d6000602084013e611ad8565b606091505b506000815103611b1d576040517f08c379a0000000000000000000000000000000000000000000000000000000008152600401611b14906130c3565b60405180910390fd5b805181602001fd5b63150b7a0260e01b7bffffffffffffffffffffffffffffffffffffffffffffffffffffffff1916817bffffffffffffffffffffffffffffffffffffffffffffffffffffffff191614915050611b7a565b600190505b949350505050565b606060405180602001604052806000815250905090565b6060611ba482610e7e565b6000611bae611b82565b90506000815111611bce5760405180602001604052806000815250611bf9565b80611bd884611d3e565b604051602001611be992919061311f565b6040516020818303038152906040525b915050919050565b611c0b8383611e0c565b611c1860008484846119fb565b611c57576040517f08c379a0000000000000000000000000000000000000000000000000000000008152600401611c4e906130c3565b60405180910390fd5b505050565b60007f80ac58cd000000000000000000000000000000000000000000000000000000007bffffffffffffffffffffffffffffffffffffffffffffffffffffffff1916827bffffffffffffffffffffffffffffffffffffffffffffffffffffffff19161480611d2757507f5b5e139f000000000000000000000000000000000000000000000000000000007bffffffffffffffffffffffffffffffffffffffffffffffffffffffff1916827bffffffffffffffffffffffffffffffffffffffffffffffffffffffff1916145b80611d375750611d3682612029565b5b9050919050565b606060006001611d4d84612093565b01905060008167ffffffffffffffff811115611d6c57611d6b61267f565b5b6040519080825280601f01601f191660200182016040528015611d9e5781602001600182028036833780820191505090505b509050600082602001820190505b600115611e01578080600190039150507f3031323334353637383961626364656600000000000000000000000000000000600a86061a8153600a8581611df557611df4613608565b5b04945060008503611dac575b819350505050919050565b600073ffffffffffffffffffffffffffffffffffffffff168273ffffffffffffffffffffffffffffffffffffffff1603611e7b576040517f08c379a0000000000000000000000000000000000000000000000000000000008152600401611e7290613683565b60405180910390fd5b611e8481611929565b15611ec4576040517f08c379a0000000000000000000000000000000000000000000000000000000008152600401611ebb906136ef565b60405180910390fd5b611ed260008383600161196a565b611edb81611929565b15611f1b576040517f08c379a0000000000000000000000000000000000000000000000000000000008152600401611f12906136ef565b60405180910390fd5b6001600360008473ffffffffffffffffffffffffffffffffffffffff1673ffffffffffffffffffffffffffffffffffffffff16815260200190815260200160002060008282540192505081905550816002600083815260200190815260200160002060006101000a81548173ffffffffffffffffffffffffffffffffffffffff021916908373ffffffffffffffffffffffffffffffffffffffff160217905550808273ffffffffffffffffffffffffffffffffffffffff16600073ffffffffffffffffffffffffffffffffffffffff167fddf252ad1be2c89b69c2b068fc378daa952ba7f163c4a11628f55a4df523b3ef60405160405180910390a4612025600083836001611970565b5050565b60007f01ffc9a7000000000000000000000000000000000000000000000000000000007bffffffffffffffffffffffffffffffffffffffffffffffffffffffff1916827bffffffffffffffffffffffffffffffffffffffffffffffffffffffff1916149050919050565b600080600090507a184f03e93ff9f4daa797ed6e38ed64bf6a1f01000000000000000083106120f1577a184f03e93ff9f4daa797ed6e38ed64bf6a1f01000000000000000083816120e7576120e6613608565b5b0492506040810190505b6d04ee2d6d415b85acef8100000000831061212e576d04ee2d6d415b85acef8100000000838161212457612123613608565b5b0492506020810190505b662386f26fc10000831061215d57662386f26fc10000838161215357612152613608565b5b0492506010810190505b6305f5e1008310612186576305f5e100838161217c5761217b613608565b5b0492506008810190505b61271083106121ab5761271083816121a1576121a0613608565b5b0492506004810190505b606483106121ce57606483816121c4576121c3613608565b5b0492506002810190505b600a83106121dd576001810190505b80915050919050565b6000604051905090565b600080fd5b600080fd5b60007fffffffff0000000000000000000000000000000000000000000000000000000082169050919050565b61222f816121fa565b811461223a57600080fd5b50565b60008135905061224c81612226565b92915050565b600060208284031215612268576122676121f0565b5b60006122768482850161223d565b91505092915050565b60008115159050919050565b6122948161227f565b82525050565b60006020820190506122af600083018461228b565b92915050565b600081519050919050565b600082825260208201905092915050565b60005b838110156122ef5780820151818401526020810190506122d4565b60008484015250505050565b6000601f19601f8301169050919050565b6000612317826122b5565b61232181856122c0565b93506123318185602086016122d1565b61233a816122fb565b840191505092915050565b6000602082019050818103600083015261235f818461230c565b905092915050565b6000819050919050565b61237a81612367565b811461238557600080fd5b50565b60008135905061239781612371565b92915050565b6000602082840312156123b3576123b26121f0565b5b60006123c184828501612388565b91505092915050565b600073ffffffffffffffffffffffffffffffffffffffff82169050919050565b60006123f5826123ca565b9050919050565b612405816123ea565b82525050565b600060208201905061242060008301846123fc565b92915050565b61242f816123ea565b811461243a57600080fd5b50565b60008135905061244c81612426565b92915050565b60008060408385031215612469576124686121f0565b5b60006124778582860161243d565b925050602061248885828601612388565b9150509250929050565b6000806000606084860312156124ab576124aa6121f0565b5b60006124b98682870161243d565b93505060206124ca8682870161243d565b92505060406124db86828701612388565b9150509250925092565b6000819050919050565b6124f8816124e5565b811461250357600080fd5b50565b600081359050612515816124ef565b92915050565b600060208284031215612531576125306121f0565b5b600061253f84828501612506565b91505092915050565b612551816124e5565b82525050565b600060208201905061256c6000830184612548565b92915050565b60008060408385031215612589576125886121f0565b5b600061259785828601612506565b92505060206125a88582860161243d565b9150509250929050565b6000602082840312156125c8576125c76121f0565b5b60006125d68482850161243d565b91505092915050565b6125e881612367565b82525050565b600060208201905061260360008301846125df565b92915050565b6126128161227f565b811461261d57600080fd5b50565b60008135905061262f81612609565b92915050565b6000806040838503121561264c5761264b6121f0565b5b600061265a8582860161243d565b925050602061266b85828601612620565b9150509250929050565b600080fd5b600080fd5b7f4e487b7100000000000000000000000000000000000000000000000000000000600052604160045260246000fd5b6126b7826122fb565b810181811067ffffffffffffffff821117156126d6576126d561267f565b5b80604052505050565b60006126e96121e6565b90506126f582826126ae565b919050565b600067ffffffffffffffff8211156127155761271461267f565b5b61271e826122fb565b9050602081019050919050565b82818337600083830152505050565b600061274d612748846126fa565b6126df565b9050828152602081018484840111156127695761276861267a565b5b61277484828561272b565b509392505050565b600082601f83011261279157612790612675565b5b81356127a184826020860161273a565b91505092915050565b600080600080608085870312156127c4576127c36121f0565b5b60006127d28782880161243d565b94505060206127e38782880161243d565b93505060406127f487828801612388565b925050606085013567ffffffffffffffff811115612815576128146121f5565b5b6128218782880161277c565b91505092959194509250565b600067ffffffffffffffff8211156128485761284761267f565b5b612851826122fb565b9050602081019050919050565b600061287161286c8461282d565b6126df565b90508281526020810184848401111561288d5761288c61267a565b5b61289884828561272b565b509392505050565b600082601f8301126128b5576128b4612675565b5b81356128c584826020860161285e565b91505092915050565b600080604083850312156128e5576128e46121f0565b5b60006128f38582860161243d565b925050602083013567ffffffffffffffff811115612914576129136121f5565b5b612920858286016128a0565b9150509250929050565b60008060408385031215612941576129406121f0565b5b600061294f8582860161243d565b92505060206129608582860161243d565b9150509250929050565b7f4e487b7100000000000000000000000000000000000000000000000000000000600052602260045260246000fd5b600060028204905060018216806129b157607f821691505b6020821081036129c4576129c361296a565b5b50919050565b7f4552433732313a20617070726f76616c20746f2063757272656e74206f776e6560008201527f7200000000000000000000000000000000000000000000000000000000000000602082015250565b6000612a266021836122c0565b9150612a31826129ca565b604082019050919050565b60006020820190508181036000830152612a5581612a19565b9050919050565b7f4552433732313a20617070726f76652063616c6c6572206973206e6f7420746f60008201527f6b656e206f776e6572206f7220617070726f76656420666f7220616c6c000000602082015250565b6000612ab8603d836122c0565b9150612ac382612a5c565b604082019050919050565b60006020820190508181036000830152612ae781612aab565b9050919050565b7f4552433732313a2063616c6c6572206973206e6f7420746f6b656e206f776e6560008201527f72206f7220617070726f76656400000000000000000000000000000000000000602082015250565b6000612b4a602d836122c0565b9150612b5582612aee565b604082019050919050565b60006020820190508181036000830152612b7981612b3d565b9050919050565b7f416363657373436f6e74726f6c3a2063616e206f6e6c792072656e6f756e636560008201527f20726f6c657320666f722073656c660000000000000000000000000000000000602082015250565b6000612bdc602f836122c0565b9150612be782612b80565b604082019050919050565b60006020820190508181036000830152612c0b81612bcf565b9050919050565b7f4552433732313a20696e76616c696420746f6b656e2049440000000000000000600082015250565b6000612c486018836122c0565b9150612c5382612c12565b602082019050919050565b60006020820190508181036000830152612c7781612c3b565b9050919050565b7f4552433732313a2061646472657373207a65726f206973206e6f74206120766160008201527f6c6964206f776e65720000000000000000000000000000000000000000000000602082015250565b6000612cda6029836122c0565b9150612ce582612c7e565b604082019050919050565b60006020820190508181036000830152612d0981612ccd565b9050919050565b7f4e487b7100000000000000000000000000000000000000000000000000000000600052601160045260246000fd5b6000612d4a82612367565b91507fffffffffffffffffffffffffffffffffffffffffffffffffffffffffffffffff8203612d7c57612d7b612d10565b5b600182019050919050565b6000612d9282612367565b9150612d9d83612367565b9250828202612dab81612367565b91508282048414831517612dc257612dc1612d10565b5b5092915050565b6000612dd482612367565b9150612ddf83612367565b9250828201905080821115612df757612df6612d10565b5b92915050565b7f4e487b7100000000000000000000000000000000000000000000000000000000600052603260045260246000fd5b6000612e3782612367565b915060008203612e4a57612e49612d10565b5b600182039050919050565b7f537472696e67733a20686578206c656e67746820696e73756666696369656e74600082015250565b6000612e8b6020836122c0565b9150612e9682612e55565b602082019050919050565b60006020820190508181036000830152612eba81612e7e565b9050919050565b7f4552433732313a207472616e736665722066726f6d20696e636f72726563742060008201527f6f776e6572000000000000000000000000000000000000000000000000000000602082015250565b6000612f1d6025836122c0565b9150612f2882612ec1565b604082019050919050565b60006020820190508181036000830152612f4c81612f10565b9050919050565b7f4552433732313a207472616e7366657220746f20746865207a65726f2061646460008201527f7265737300000000000000000000000000000000000000000000000000000000602082015250565b6000612faf6024836122c0565b9150612fba82612f53565b604082019050919050565b60006020820190508181036000830152612fde81612fa2565b9050919050565b7f4552433732313a20617070726f766520746f2063616c6c657200000000000000600082015250565b600061301b6019836122c0565b915061302682612fe5565b602082019050919050565b6000602082019050818103600083015261304a8161300e565b9050919050565b7f4552433732313a207472616e7366657220746f206e6f6e20455243373231526560008201527f63656976657220696d706c656d656e7465720000000000000000000000000000602082015250565b60006130ad6032836122c0565b91506130b882613051565b604082019050919050565b600060208201905081810360008301526130dc816130a0565b9050919050565b600081905092915050565b60006130f9826122b5565b61310381856130e3565b93506131138185602086016122d1565b80840191505092915050565b600061312b82856130ee565b915061313782846130ee565b91508190509392505050565b7f45524337323155524953746f726167653a2055524920736574206f66206e6f6e60008201527f6578697374656e7420746f6b656e000000000000000000000000000000000000602082015250565b600061319f602e836122c0565b91506131aa82613143565b604082019050919050565b600060208201905081810360008301526131ce81613192565b9050919050565b60008190508160005260206000209050919050565b60006020601f8301049050919050565b600082821b905092915050565b6000600883026132377fffffffffffffffffffffffffffffffffffffffffffffffffffffffffffffffff826131fa565b61324186836131fa565b95508019841693508086168417925050509392505050565b6000819050919050565b600061327e61327961327484612367565b613259565b612367565b9050919050565b6000819050919050565b61329883613263565b6132ac6132a482613285565b848454613207565b825550505050565b600090565b6132c16132b4565b6132cc81848461328f565b505050565b5b818110156132f0576132e56000826132b9565b6001810190506132d2565b5050565b601f82111561333557613306816131d5565b61330f846131ea565b8101602085101561331e578190505b61333261332a856131ea565b8301826132d1565b50505b505050565b600082821c905092915050565b60006133586000198460080261333a565b1980831691505092915050565b60006133718383613347565b9150826002028217905092915050565b61338a826122b5565b67ffffffffffffffff8111156133a3576133a261267f565b5b6133ad8254612999565b6133b88282856132f4565b600060209050601f8311600181146133eb57600084156133d9578287015190505b6133e38582613365565b86555061344b565b601f1984166133f9866131d5565b60005b82811015613421578489015182556001820191506020850194506020810190506133fc565b8683101561343e578489015161343a601f891682613347565b8355505b6001600288020188555050505b505050505050565b7f416363657373436f6e74726f6c3a206163636f756e7420000000000000000000600082015250565b60006134896017836130e3565b915061349482613453565b601782019050919050565b7f206973206d697373696e6720726f6c6520000000000000000000000000000000600082015250565b60006134d56011836130e3565b91506134e08261349f565b601182019050919050565b60006134f68261347c565b915061350282856130ee565b915061350d826134c8565b915061351982846130ee565b91508190509392505050565b600081519050919050565b600082825260208201905092915050565b600061354c82613525565b6135568185613530565b93506135668185602086016122d1565b61356f816122fb565b840191505092915050565b600060808201905061358f60008301876123fc565b61359c60208301866123fc565b6135a960408301856125df565b81810360608301526135bb8184613541565b905095945050505050565b6000815190506135d581612226565b92915050565b6000602082840312156135f1576135f06121f0565b5b60006135ff848285016135c6565b91505092915050565b7f4e487b7100000000000000000000000000000000000000000000000000000000600052601260045260246000fd5b7f4552433732313a206d696e7420746f20746865207a65726f2061646472657373600082015250565b600061366d6020836122c0565b915061367882613637565b602082019050919050565b6000602082019050818103600083015261369c81613660565b9050919050565b7f4552433732313a20746f6b656e20616c7265616479206d696e74656400000000600082015250565b60006136d9601c836122c0565b91506136e4826136a3565b602082019050919050565b60006020820190508181036000830152613708816136cc565b905091905056fea26469706673582212209c6b2590b3e941f10dd7cdca1e1c4ce8dcc645f6a3a1a548c25351ae60d402c964736f6c6343000811003368747470733a2f2f656e637279707465642d74626e302e677374617469632e636f6d2f696d616765733f713d74626e3a414e64394763545841464c356e5033532d34786969565941564f6b33716b5944547951564f4641315267267368747470733a2f2f696d616765732e726177706978656c2e636f6d2f696d6167655f3830302f63484a70646d46305a533973636939706257466e5a584d766432566963326c305a5338794d4449794c5441314c335677643273324d6a41304f54677a4e433133615774706257566b61574574615731685a325574613239335a6d4d3062486f75616e426e2e6a7067",
  "devdoc": {
    "kind": "dev",
    "methods": {
      "approve(address,uint256)": {
        "details": "See {IERC721-approve}."
      },
      "balanceOf(address)": {
        "details": "See {IERC721-balanceOf}."
      },
      "getApproved(uint256)": {
        "details": "See {IERC721-getApproved}."
      },
      "getRoleAdmin(bytes32)": {
        "details": "Returns the admin role that controls `role`. See {grantRole} and {revokeRole}. To change a role's admin, use {_setRoleAdmin}."
      },
      "grantRole(bytes32,address)": {
        "details": "Grants `role` to `account`. If `account` had not been already granted `role`, emits a {RoleGranted} event. Requirements: - the caller must have ``role``'s admin role. May emit a {RoleGranted} event."
      },
      "hasRole(bytes32,address)": {
        "details": "Returns `true` if `account` has been granted `role`."
      },
      "isApprovedForAll(address,address)": {
        "details": "See {IERC721-isApprovedForAll}."
      },
      "name()": {
        "details": "See {IERC721Metadata-name}."
      },
      "ownerOf(uint256)": {
        "details": "See {IERC721-ownerOf}."
      },
      "renounceRole(bytes32,address)": {
        "details": "Revokes `role` from the calling account. Roles are often managed via {grantRole} and {revokeRole}: this function's purpose is to provide a mechanism for accounts to lose their privileges if they are compromised (such as when a trusted device is misplaced). If the calling account had been revoked `role`, emits a {RoleRevoked} event. Requirements: - the caller must be `account`. May emit a {RoleRevoked} event."
      },
      "revokeRole(bytes32,address)": {
        "details": "Revokes `role` from `account`. If `account` had been granted `role`, emits a {RoleRevoked} event. Requirements: - the caller must have ``role``'s admin role. May emit a {RoleRevoked} event."
      },
      "safeTransferFrom(address,address,uint256)": {
        "details": "See {IERC721-safeTransferFrom}."
      },
      "safeTransferFrom(address,address,uint256,bytes)": {
        "details": "See {IERC721-safeTransferFrom}."
      },
      "setApprovalForAll(address,bool)": {
        "details": "See {IERC721-setApprovalForAll}."
      },
      "symbol()": {
        "details": "See {IERC721Metadata-symbol}."
      },
      "transferFrom(address,address,uint256)": {
        "details": "See {IERC721-transferFrom}."
      }
    },
    "version": 1
  },
  "userdoc": {
    "kind": "user",
    "methods": {},
    "version": 1
  },
  "storageLayout": {
    "storage": [
      {
        "astId": 442,
        "contract": "contracts/NFT/OriginERC721.sol:OriginERC721",
        "label": "_name",
        "offset": 0,
        "slot": "0",
        "type": "t_string_storage"
      },
      {
        "astId": 444,
        "contract": "contracts/NFT/OriginERC721.sol:OriginERC721",
        "label": "_symbol",
        "offset": 0,
        "slot": "1",
        "type": "t_string_storage"
      },
      {
        "astId": 448,
        "contract": "contracts/NFT/OriginERC721.sol:OriginERC721",
        "label": "_owners",
        "offset": 0,
        "slot": "2",
        "type": "t_mapping(t_uint256,t_address)"
      },
      {
        "astId": 452,
        "contract": "contracts/NFT/OriginERC721.sol:OriginERC721",
        "label": "_balances",
        "offset": 0,
        "slot": "3",
        "type": "t_mapping(t_address,t_uint256)"
      },
      {
        "astId": 456,
        "contract": "contracts/NFT/OriginERC721.sol:OriginERC721",
        "label": "_tokenApprovals",
        "offset": 0,
        "slot": "4",
        "type": "t_mapping(t_uint256,t_address)"
      },
      {
        "astId": 462,
        "contract": "contracts/NFT/OriginERC721.sol:OriginERC721",
        "label": "_operatorApprovals",
        "offset": 0,
        "slot": "5",
        "type": "t_mapping(t_address,t_mapping(t_address,t_bool))"
      },
      {
        "astId": 1493,
        "contract": "contracts/NFT/OriginERC721.sol:OriginERC721",
        "label": "_tokenURIs",
        "offset": 0,
        "slot": "6",
        "type": "t_mapping(t_uint256,t_string_storage)"
      },
      {
        "astId": 24,
        "contract": "contracts/NFT/OriginERC721.sol:OriginERC721",
        "label": "_roles",
        "offset": 0,
        "slot": "7",
        "type": "t_mapping(t_bytes32,t_struct(RoleData)19_storage)"
      },
      {
        "astId": 3274,
        "contract": "contracts/NFT/OriginERC721.sol:OriginERC721",
        "label": "_nextTokenId",
        "offset": 0,
        "slot": "8",
        "type": "t_uint256"
      }
    ],
    "types": {
      "t_address": {
        "encoding": "inplace",
        "label": "address",
        "numberOfBytes": "20"
      },
      "t_bool": {
        "encoding": "inplace",
        "label": "bool",
        "numberOfBytes": "1"
      },
      "t_bytes32": {
        "encoding": "inplace",
        "label": "bytes32",
        "numberOfBytes": "32"
      },
      "t_mapping(t_address,t_bool)": {
        "encoding": "mapping",
        "key": "t_address",
        "label": "mapping(address => bool)",
        "numberOfBytes": "32",
        "value": "t_bool"
      },
      "t_mapping(t_address,t_mapping(t_address,t_bool))": {
        "encoding": "mapping",
        "key": "t_address",
        "label": "mapping(address => mapping(address => bool))",
        "numberOfBytes": "32",
        "value": "t_mapping(t_address,t_bool)"
      },
      "t_mapping(t_address,t_uint256)": {
        "encoding": "mapping",
        "key": "t_address",
        "label": "mapping(address => uint256)",
        "numberOfBytes": "32",
        "value": "t_uint256"
      },
      "t_mapping(t_bytes32,t_struct(RoleData)19_storage)": {
        "encoding": "mapping",
        "key": "t_bytes32",
        "label": "mapping(bytes32 => struct AccessControl.RoleData)",
        "numberOfBytes": "32",
        "value": "t_struct(RoleData)19_storage"
      },
      "t_mapping(t_uint256,t_address)": {
        "encoding": "mapping",
        "key": "t_uint256",
        "label": "mapping(uint256 => address)",
        "numberOfBytes": "32",
        "value": "t_address"
      },
      "t_mapping(t_uint256,t_string_storage)": {
        "encoding": "mapping",
        "key": "t_uint256",
        "label": "mapping(uint256 => string)",
        "numberOfBytes": "32",
        "value": "t_string_storage"
      },
      "t_string_storage": {
        "encoding": "bytes",
        "label": "string",
        "numberOfBytes": "32"
      },
      "t_struct(RoleData)19_storage": {
        "encoding": "inplace",
        "label": "struct AccessControl.RoleData",
        "members": [
          {
            "astId": 16,
            "contract": "contracts/NFT/OriginERC721.sol:OriginERC721",
            "label": "members",
            "offset": 0,
            "slot": "0",
            "type": "t_mapping(t_address,t_bool)"
          },
          {
            "astId": 18,
            "contract": "contracts/NFT/OriginERC721.sol:OriginERC721",
            "label": "adminRole",
            "offset": 0,
            "slot": "1",
            "type": "t_bytes32"
          }
        ],
        "numberOfBytes": "64"
      },
      "t_uint256": {
        "encoding": "inplace",
        "label": "uint256",
        "numberOfBytes": "32"
      }
    }
  }
}