{
  "address": "0xbe55fB06e22dC76FC6985aF2ebB7A7aBfC784dAD",
  "abi": [
    {
      "inputs": [
        {
          "internalType": "string",
          "name": "name",
          "type": "string"
        },
        {
          "internalType": "string",
          "name": "symbol",
          "type": "string"
        },
        {
          "internalType": "address",
          "name": "manager",
          "type": "address"
        }
      ],
      "stateMutability": "nonpayable",
      "type": "constructor"
    },
    {
      "anonymous": false,
      "inputs": [
        {
          "indexed": true,
          "internalType": "address",
          "name": "owner",
          "type": "address"
        },
        {
          "indexed": true,
          "internalType": "address",
          "name": "approved",
          "type": "address"
        },
        {
          "indexed": true,
          "internalType": "uint256",
          "name": "tokenId",
          "type": "uint256"
        }
      ],
      "name": "Approval",
      "type": "event"
    },
    {
      "anonymous": false,
      "inputs": [
        {
          "indexed": true,
          "internalType": "address",
          "name": "owner",
          "type": "address"
        },
        {
          "indexed": true,
          "internalType": "address",
          "name": "operator",
          "type": "address"
        },
        {
          "indexed": false,
          "internalType": "bool",
          "name": "approved",
          "type": "bool"
        }
      ],
      "name": "ApprovalForAll",
      "type": "event"
    },
    {
      "anonymous": false,
      "inputs": [
        {
          "indexed": true,
          "internalType": "bytes32",
          "name": "role",
          "type": "bytes32"
        },
        {
          "indexed": true,
          "internalType": "bytes32",
          "name": "previousAdminRole",
          "type": "bytes32"
        },
        {
          "indexed": true,
          "internalType": "bytes32",
          "name": "newAdminRole",
          "type": "bytes32"
        }
      ],
      "name": "RoleAdminChanged",
      "type": "event"
    },
    {
      "anonymous": false,
      "inputs": [
        {
          "indexed": true,
          "internalType": "bytes32",
          "name": "role",
          "type": "bytes32"
        },
        {
          "indexed": true,
          "internalType": "address",
          "name": "account",
          "type": "address"
        },
        {
          "indexed": true,
          "internalType": "address",
          "name": "sender",
          "type": "address"
        }
      ],
      "name": "RoleGranted",
      "type": "event"
    },
    {
      "anonymous": false,
      "inputs": [
        {
          "indexed": true,
          "internalType": "bytes32",
          "name": "role",
          "type": "bytes32"
        },
        {
          "indexed": true,
          "internalType": "address",
          "name": "account",
          "type": "address"
        },
        {
          "indexed": true,
          "internalType": "address",
          "name": "sender",
          "type": "address"
        }
      ],
      "name": "RoleRevoked",
      "type": "event"
    },
    {
      "anonymous": false,
      "inputs": [
        {
          "indexed": true,
          "internalType": "address",
          "name": "from",
          "type": "address"
        },
        {
          "indexed": true,
          "internalType": "address",
          "name": "to",
          "type": "address"
        },
        {
          "indexed": true,
          "internalType": "uint256",
          "name": "tokenId",
          "type": "uint256"
        }
      ],
      "name": "Transfer",
      "type": "event"
    },
    {
      "inputs": [],
      "name": "BURNER_ROLE",
      "outputs": [
        {
          "internalType": "bytes32",
          "name": "",
          "type": "bytes32"
        }
      ],
      "stateMutability": "view",
      "type": "function"
    },
    {
      "inputs": [],
      "name": "DEFAULT_ADMIN_ROLE",
      "outputs": [
        {
          "internalType": "bytes32",
          "name": "",
          "type": "bytes32"
        }
      ],
      "stateMutability": "view",
      "type": "function"
    },
    {
      "inputs": [],
      "name": "MINTER_ROLE",
      "outputs": [
        {
          "internalType": "bytes32",
          "name": "",
          "type": "bytes32"
        }
      ],
      "stateMutability": "view",
      "type": "function"
    },
    {
      "inputs": [],
      "name": "SET_URI_ROLE",
      "outputs": [
        {
          "internalType": "bytes32",
          "name": "",
          "type": "bytes32"
        }
      ],
      "stateMutability": "view",
      "type": "function"
    },
    {
      "inputs": [
        {
          "internalType": "address",
          "name": "to",
          "type": "address"
        },
        {
          "internalType": "uint256",
          "name": "tokenId",
          "type": "uint256"
        }
      ],
      "name": "approve",
      "outputs": [],
      "stateMutability": "nonpayable",
      "type": "function"
    },
    {
      "inputs": [
        {
          "internalType": "address",
          "name": "owner",
          "type": "address"
        }
      ],
      "name": "balanceOf",
      "outputs": [
        {
          "internalType": "uint256",
          "name": "",
          "type": "uint256"
        }
      ],
      "stateMutability": "view",
      "type": "function"
    },
    {
      "inputs": [
        {
          "internalType": "address",
          "name": "to",
          "type": "address"
        },
        {
          "internalType": "uint256",
          "name": "amount",
          "type": "uint256"
        }
      ],
      "name": "burn",
      "outputs": [],
      "stateMutability": "nonpayable",
      "type": "function"
    },
    {
      "inputs": [
        {
          "internalType": "uint256",
          "name": "tokenId",
          "type": "uint256"
        }
      ],
      "name": "getApproved",
      "outputs": [
        {
          "internalType": "address",
          "name": "",
          "type": "address"
        }
      ],
      "stateMutability": "view",
      "type": "function"
    },
    {
      "inputs": [
        {
          "internalType": "bytes32",
          "name": "role",
          "type": "bytes32"
        }
      ],
      "name": "getRoleAdmin",
      "outputs": [
        {
          "internalType": "bytes32",
          "name": "",
          "type": "bytes32"
        }
      ],
      "stateMutability": "view",
      "type": "function"
    },
    {
      "inputs": [
        {
          "internalType": "bytes32",
          "name": "role",
          "type": "bytes32"
        },
        {
          "internalType": "address",
          "name": "account",
          "type": "address"
        }
      ],
      "name": "grantRole",
      "outputs": [],
      "stateMutability": "nonpayable",
      "type": "function"
    },
    {
      "inputs": [
        {
          "internalType": "bytes32",
          "name": "role",
          "type": "bytes32"
        },
        {
          "internalType": "address",
          "name": "account",
          "type": "address"
        }
      ],
      "name": "hasRole",
      "outputs": [
        {
          "internalType": "bool",
          "name": "",
          "type": "bool"
        }
      ],
      "stateMutability": "view",
      "type": "function"
    },
    {
      "inputs": [
        {
          "internalType": "address",
          "name": "owner",
          "type": "address"
        },
        {
          "internalType": "address",
          "name": "operator",
          "type": "address"
        }
      ],
      "name": "isApprovedForAll",
      "outputs": [
        {
          "internalType": "bool",
          "name": "",
          "type": "bool"
        }
      ],
      "stateMutability": "view",
      "type": "function"
    },
    {
      "inputs": [
        {
          "internalType": "address",
          "name": "to",
          "type": "address"
        },
        {
          "internalType": "uint256",
          "name": "amount",
          "type": "uint256"
        }
      ],
      "name": "mint",
      "outputs": [],
      "stateMutability": "nonpayable",
      "type": "function"
    },
    {
      "inputs": [],
      "name": "name",
      "outputs": [
        {
          "internalType": "string",
          "name": "",
          "type": "string"
        }
      ],
      "stateMutability": "view",
      "type": "function"
    },
    {
      "inputs": [
        {
          "internalType": "uint256",
          "name": "tokenId",
          "type": "uint256"
        }
      ],
      "name": "ownerOf",
      "outputs": [
        {
          "internalType": "address",
          "name": "",
          "type": "address"
        }
      ],
      "stateMutability": "view",
      "type": "function"
    },
    {
      "inputs": [
        {
          "internalType": "bytes32",
          "name": "role",
          "type": "bytes32"
        },
        {
          "internalType": "address",
          "name": "account",
          "type": "address"
        }
      ],
      "name": "renounceRole",
      "outputs": [],
      "stateMutability": "nonpayable",
      "type": "function"
    },
    {
      "inputs": [
        {
          "internalType": "bytes32",
          "name": "role",
          "type": "bytes32"
        },
        {
          "internalType": "address",
          "name": "account",
          "type": "address"
        }
      ],
      "name": "revokeRole",
      "outputs": [],
      "stateMutability": "nonpayable",
      "type": "function"
    },
    {
      "inputs": [
        {
          "internalType": "address",
          "name": "from",
          "type": "address"
        },
        {
          "internalType": "address",
          "name": "to",
          "type": "address"
        },
        {
          "internalType": "uint256",
          "name": "tokenId",
          "type": "uint256"
        }
      ],
      "name": "safeTransferFrom",
      "outputs": [],
      "stateMutability": "nonpayable",
      "type": "function"
    },
    {
      "inputs": [
        {
          "internalType": "address",
          "name": "from",
          "type": "address"
        },
        {
          "internalType": "address",
          "name": "to",
          "type": "address"
        },
        {
          "internalType": "uint256",
          "name": "tokenId",
          "type": "uint256"
        },
        {
          "internalType": "bytes",
          "name": "data",
          "type": "bytes"
        }
      ],
      "name": "safeTransferFrom",
      "outputs": [],
      "stateMutability": "nonpayable",
      "type": "function"
    },
    {
      "inputs": [
        {
          "internalType": "address",
          "name": "operator",
          "type": "address"
        },
        {
          "internalType": "bool",
          "name": "approved",
          "type": "bool"
        }
      ],
      "name": "setApprovalForAll",
      "outputs": [],
      "stateMutability": "nonpayable",
      "type": "function"
    },
    {
      "inputs": [
        {
          "internalType": "string",
          "name": "endpoint",
          "type": "string"
        }
      ],
      "name": "setBaseEndpoint",
      "outputs": [],
      "stateMutability": "nonpayable",
      "type": "function"
    },
    {
      "inputs": [
        {
          "internalType": "bytes4",
          "name": "interfaceId",
          "type": "bytes4"
        }
      ],
      "name": "supportsInterface",
      "outputs": [
        {
          "internalType": "bool",
          "name": "",
          "type": "bool"
        }
      ],
      "stateMutability": "view",
      "type": "function"
    },
    {
      "inputs": [],
      "name": "symbol",
      "outputs": [
        {
          "internalType": "string",
          "name": "",
          "type": "string"
        }
      ],
      "stateMutability": "view",
      "type": "function"
    },
    {
      "inputs": [
        {
          "internalType": "uint256",
          "name": "tokenId",
          "type": "uint256"
        }
      ],
      "name": "tokenURI",
      "outputs": [
        {
          "internalType": "string",
          "name": "",
          "type": "string"
        }
      ],
      "stateMutability": "view",
      "type": "function"
    },
    {
      "inputs": [
        {
          "internalType": "address",
          "name": "from",
          "type": "address"
        },
        {
          "internalType": "address",
          "name": "to",
          "type": "address"
        },
        {
          "internalType": "uint256",
          "name": "tokenId",
          "type": "uint256"
        }
      ],
      "name": "transferFrom",
      "outputs": [],
      "stateMutability": "nonpayable",
      "type": "function"
    }
  ],
  "transactionHash": "0xa63b96a920cee7a58062d2cfc6138af3ac23c2ee160361dc9a98a633df0ae103",
  "args": [
    "Target721",
    "T721",
    "0x8f2aC7323316974c05Eb3ADc72810f92a2ad471E"
  ],
  "numDeployments": 3,
  "solcInputHash": "fab524869a6af1d86dc5d1c13ac9126a",
  "bytecode": "0x60806040523480156200001157600080fd5b5060405162003f3838038062003f388339818101604052810190620000379190620004ac565b828281600090816200004a919062000791565b5080600190816200005c919062000791565b505050620000886000801b73d2445190000000000000000000000000000000006200014f60201b60201c565b620000ce7f9f2df0fed2c77648de5860a4cc508cd0818c85b8b8a1ab4ceeef8d981c8956a673d2aaa006000000000000000000000000000000006200014f60201b60201c565b620001147f3c11d16cbaffd01df69ce1c404f6340ee057498f5f00246190ea54220576a84873d2aaa006000000000000000000000000000000006200014f60201b60201c565b620001467f35f075f92692a81a158b1a9ac894d6718b345a2041632e1d86ad41e77d4e86c8826200014f60201b60201c565b50505062000878565b6200016182826200024160201b60201c565b6200023d5760016006600084815260200190815260200160002060000160008373ffffffffffffffffffffffffffffffffffffffff1673ffffffffffffffffffffffffffffffffffffffff16815260200190815260200160002060006101000a81548160ff021916908315150217905550620001e2620002ac60201b60201c565b73ffffffffffffffffffffffffffffffffffffffff168173ffffffffffffffffffffffffffffffffffffffff16837f2f8788117e7eff1d82e926ec794901d17c78024a50270940304540a733656f0d60405160405180910390a45b5050565b60006006600084815260200190815260200160002060000160008373ffffffffffffffffffffffffffffffffffffffff1673ffffffffffffffffffffffffffffffffffffffff16815260200190815260200160002060009054906101000a900460ff16905092915050565b600033905090565b6000604051905090565b600080fd5b600080fd5b600080fd5b600080fd5b6000601f19601f8301169050919050565b7f4e487b7100000000000000000000000000000000000000000000000000000000600052604160045260246000fd5b6200031d82620002d2565b810181811067ffffffffffffffff821117156200033f576200033e620002e3565b5b80604052505050565b600062000354620002b4565b905062000362828262000312565b919050565b600067ffffffffffffffff821115620003855762000384620002e3565b5b6200039082620002d2565b9050602081019050919050565b60005b83811015620003bd578082015181840152602081019050620003a0565b60008484015250505050565b6000620003e0620003da8462000367565b62000348565b905082815260208101848484011115620003ff57620003fe620002cd565b5b6200040c8482856200039d565b509392505050565b600082601f8301126200042c576200042b620002c8565b5b81516200043e848260208601620003c9565b91505092915050565b600073ffffffffffffffffffffffffffffffffffffffff82169050919050565b6000620004748262000447565b9050919050565b620004868162000467565b81146200049257600080fd5b50565b600081519050620004a6816200047b565b92915050565b600080600060608486031215620004c857620004c7620002be565b5b600084015167ffffffffffffffff811115620004e957620004e8620002c3565b5b620004f78682870162000414565b935050602084015167ffffffffffffffff8111156200051b576200051a620002c3565b5b620005298682870162000414565b92505060406200053c8682870162000495565b9150509250925092565b600081519050919050565b7f4e487b7100000000000000000000000000000000000000000000000000000000600052602260045260246000fd5b600060028204905060018216806200059957607f821691505b602082108103620005af57620005ae62000551565b5b50919050565b60008190508160005260206000209050919050565b60006020601f8301049050919050565b600082821b905092915050565b600060088302620006197fffffffffffffffffffffffffffffffffffffffffffffffffffffffffffffffff82620005da565b620006258683620005da565b95508019841693508086168417925050509392505050565b6000819050919050565b6000819050919050565b6000620006726200066c62000666846200063d565b62000647565b6200063d565b9050919050565b6000819050919050565b6200068e8362000651565b620006a66200069d8262000679565b848454620005e7565b825550505050565b600090565b620006bd620006ae565b620006ca81848462000683565b505050565b5b81811015620006f257620006e6600082620006b3565b600181019050620006d0565b5050565b601f82111562000741576200070b81620005b5565b6200071684620005ca565b8101602085101562000726578190505b6200073e6200073585620005ca565b830182620006cf565b50505b505050565b600082821c905092915050565b6000620007666000198460080262000746565b1980831691505092915050565b600062000781838362000753565b9150826002028217905092915050565b6200079c8262000546565b67ffffffffffffffff811115620007b857620007b7620002e3565b5b620007c4825462000580565b620007d1828285620006f6565b600060209050601f831160018114620008095760008415620007f4578287015190505b62000800858262000773565b86555062000870565b601f1984166200081986620005b5565b60005b8281101562000843578489015182556001820191506020850194506020810190506200081c565b868310156200086357848901516200085f601f89168262000753565b8355505b6001600288020188555050505b505050505050565b6136b080620008886000396000f3fe608060405234801561001057600080fd5b50600436106101735760003560e01c80636352211e116100de578063a22cb46511610097578063d539139311610071578063d53913931461045a578063d547741f14610478578063e985e9c514610494578063f6b7c8e7146104c457610173565b8063a22cb465146103f2578063b88d4fde1461040e578063c87b56dd1461042a57610173565b80636352211e1461030a57806370a082311461033a57806391d148541461036a57806395d89b411461039a5780639dc29fac146103b8578063a217fddf146103d457610173565b8063282c51f311610130578063282c51f31461025e5780632f2ff15d1461027c57806336568abe1461029857806340c10f19146102b457806342842e0e146102d05780635d6f218a146102ec57610173565b806301ffc9a71461017857806306fdde03146101a8578063081812fc146101c6578063095ea7b3146101f657806323b872dd14610212578063248a9ca31461022e575b600080fd5b610192600480360381019061018d91906121e7565b6104e0565b60405161019f919061222f565b60405180910390f35b6101b06104f2565b6040516101bd91906122da565b60405180910390f35b6101e060048036038101906101db9190612332565b610584565b6040516101ed91906123a0565b60405180910390f35b610210600480360381019061020b91906123e7565b6105ca565b005b61022c60048036038101906102279190612427565b6106e1565b005b610248600480360381019061024391906124b0565b610741565b60405161025591906124ec565b60405180910390f35b610266610761565b60405161027391906124ec565b60405180910390f35b61029660048036038101906102919190612507565b610785565b005b6102b260048036038101906102ad9190612507565b6107a6565b005b6102ce60048036038101906102c991906123e7565b610829565b005b6102ea60048036038101906102e59190612427565b6108a0565b005b6102f46108c0565b60405161030191906124ec565b60405180910390f35b610324600480360381019061031f9190612332565b6108e4565b60405161033191906123a0565b60405180910390f35b610354600480360381019061034f9190612547565b61096a565b6040516103619190612583565b60405180910390f35b610384600480360381019061037f9190612507565b610a21565b604051610391919061222f565b60405180910390f35b6103a2610a8c565b6040516103af91906122da565b60405180910390f35b6103d260048036038101906103cd91906123e7565b610b1e565b005b6103dc610b95565b6040516103e991906124ec565b60405180910390f35b61040c600480360381019061040791906125ca565b610b9c565b005b6104286004803603810190610423919061273f565b610bb2565b005b610444600480360381019061043f9190612332565b610c14565b60405161045191906122da565b60405180910390f35b610462610c73565b60405161046f91906124ec565b60405180910390f35b610492600480360381019061048d9190612507565b610c97565b005b6104ae60048036038101906104a991906127c2565b610cb8565b6040516104bb919061222f565b60405180910390f35b6104de60048036038101906104d991906128a3565b610d4c565b005b60006104eb82610d8a565b9050919050565b6060600080546105019061291b565b80601f016020809104026020016040519081016040528092919081815260200182805461052d9061291b565b801561057a5780601f1061054f5761010080835404028352916020019161057a565b820191906000526020600020905b81548152906001019060200180831161055d57829003601f168201915b5050505050905090565b600061058f82610e04565b6004600083815260200190815260200160002060009054906101000a900473ffffffffffffffffffffffffffffffffffffffff169050919050565b60006105d5826108e4565b90508073ffffffffffffffffffffffffffffffffffffffff168373ffffffffffffffffffffffffffffffffffffffff1603610645576040517f08c379a000000000000000000000000000000000000000000000000000000000815260040161063c906129be565b60405180910390fd5b8073ffffffffffffffffffffffffffffffffffffffff16610664610e4f565b73ffffffffffffffffffffffffffffffffffffffff16148061069357506106928161068d610e4f565b610cb8565b5b6106d2576040517f08c379a00000000000000000000000000000000000000000000000000000000081526004016106c990612a50565b60405180910390fd5b6106dc8383610e57565b505050565b6106f26106ec610e4f565b82610f10565b610731576040517f08c379a000000000000000000000000000000000000000000000000000000000815260040161072890612ae2565b60405180910390fd5b61073c838383610fa5565b505050565b600060066000838152602001908152602001600020600101549050919050565b7f3c11d16cbaffd01df69ce1c404f6340ee057498f5f00246190ea54220576a84881565b61078e82610741565b6107978161129e565b6107a183836112b2565b505050565b6107ae610e4f565b73ffffffffffffffffffffffffffffffffffffffff168173ffffffffffffffffffffffffffffffffffffffff161461081b576040517f08c379a000000000000000000000000000000000000000000000000000000000815260040161081290612b74565b60405180910390fd5b6108258282611393565b5050565b6108537f9f2df0fed2c77648de5860a4cc508cd0818c85b8b8a1ab4ceeef8d981c8956a633610a21565b610892576040517f08c379a000000000000000000000000000000000000000000000000000000000815260040161088990612be0565b60405180910390fd5b61089c8282611475565b5050565b6108bb83838360405180602001604052806000815250610bb2565b505050565b7f35f075f92692a81a158b1a9ac894d6718b345a2041632e1d86ad41e77d4e86c881565b6000806108f083611692565b9050600073ffffffffffffffffffffffffffffffffffffffff168173ffffffffffffffffffffffffffffffffffffffff1603610961576040517f08c379a000000000000000000000000000000000000000000000000000000000815260040161095890612c4c565b60405180910390fd5b80915050919050565b60008073ffffffffffffffffffffffffffffffffffffffff168273ffffffffffffffffffffffffffffffffffffffff16036109da576040517f08c379a00000000000000000000000000000000000000000000000000000000081526004016109d190612cde565b60405180910390fd5b600360008373ffffffffffffffffffffffffffffffffffffffff1673ffffffffffffffffffffffffffffffffffffffff168152602001908152602001600020549050919050565b60006006600084815260200190815260200160002060000160008373ffffffffffffffffffffffffffffffffffffffff1673ffffffffffffffffffffffffffffffffffffffff16815260200190815260200160002060009054906101000a900460ff16905092915050565b606060018054610a9b9061291b565b80601f0160208091040260200160405190810160405280929190818152602001828054610ac79061291b565b8015610b145780601f10610ae957610100808354040283529160200191610b14565b820191906000526020600020905b815481529060010190602001808311610af757829003601f168201915b5050505050905090565b610b487f3c11d16cbaffd01df69ce1c404f6340ee057498f5f00246190ea54220576a84833610a21565b610b87576040517f08c379a0000000000000000000000000000000000000000000000000000000008152600401610b7e90612be0565b60405180910390fd5b610b918282611475565b5050565b6000801b81565b610bae610ba7610e4f565b83836116cf565b5050565b610bc3610bbd610e4f565b83610f10565b610c02576040517f08c379a0000000000000000000000000000000000000000000000000000000008152600401610bf990612ae2565b60405180910390fd5b610c0e8484848461183b565b50505050565b60606000610c20611897565b90506000815111610c405760405180602001604052806000815250610c6b565b80610c4a84611929565b604051602001610c5b929190612d86565b6040516020818303038152906040525b915050919050565b7f9f2df0fed2c77648de5860a4cc508cd0818c85b8b8a1ab4ceeef8d981c8956a681565b610ca082610741565b610ca98161129e565b610cb38383611393565b505050565b6000600560008473ffffffffffffffffffffffffffffffffffffffff1673ffffffffffffffffffffffffffffffffffffffff16815260200190815260200160002060008373ffffffffffffffffffffffffffffffffffffffff1673ffffffffffffffffffffffffffffffffffffffff16815260200190815260200160002060009054906101000a900460ff16905092915050565b7f35f075f92692a81a158b1a9ac894d6718b345a2041632e1d86ad41e77d4e86c8610d768161129e565b8160079081610d859190612f61565b505050565b60007f7965db0b000000000000000000000000000000000000000000000000000000007bffffffffffffffffffffffffffffffffffffffffffffffffffffffff1916827bffffffffffffffffffffffffffffffffffffffffffffffffffffffff19161480610dfd5750610dfc826119f7565b5b9050919050565b610e0d81611ad9565b610e4c576040517f08c379a0000000000000000000000000000000000000000000000000000000008152600401610e4390612c4c565b60405180910390fd5b50565b600033905090565b816004600083815260200190815260200160002060006101000a81548173ffffffffffffffffffffffffffffffffffffffff021916908373ffffffffffffffffffffffffffffffffffffffff160217905550808273ffffffffffffffffffffffffffffffffffffffff16610eca836108e4565b73ffffffffffffffffffffffffffffffffffffffff167f8c5be1e5ebec7d5bd14f71427d1e84f3dd0314c0f7b2291e5b200ac8c7c3b92560405160405180910390a45050565b600080610f1c836108e4565b90508073ffffffffffffffffffffffffffffffffffffffff168473ffffffffffffffffffffffffffffffffffffffff161480610f5e5750610f5d8185610cb8565b5b80610f9c57508373ffffffffffffffffffffffffffffffffffffffff16610f8484610584565b73ffffffffffffffffffffffffffffffffffffffff16145b91505092915050565b8273ffffffffffffffffffffffffffffffffffffffff16610fc5826108e4565b73ffffffffffffffffffffffffffffffffffffffff161461101b576040517f08c379a0000000000000000000000000000000000000000000000000000000008152600401611012906130a5565b60405180910390fd5b600073ffffffffffffffffffffffffffffffffffffffff168273ffffffffffffffffffffffffffffffffffffffff160361108a576040517f08c379a000000000000000000000000000000000000000000000000000000000815260040161108190613137565b60405180910390fd5b6110978383836001611b1a565b8273ffffffffffffffffffffffffffffffffffffffff166110b7826108e4565b73ffffffffffffffffffffffffffffffffffffffff161461110d576040517f08c379a0000000000000000000000000000000000000000000000000000000008152600401611104906130a5565b60405180910390fd5b6004600082815260200190815260200160002060006101000a81549073ffffffffffffffffffffffffffffffffffffffff02191690556001600360008573ffffffffffffffffffffffffffffffffffffffff1673ffffffffffffffffffffffffffffffffffffffff168152602001908152602001600020600082825403925050819055506001600360008473ffffffffffffffffffffffffffffffffffffffff1673ffffffffffffffffffffffffffffffffffffffff16815260200190815260200160002060008282540192505081905550816002600083815260200190815260200160002060006101000a81548173ffffffffffffffffffffffffffffffffffffffff021916908373ffffffffffffffffffffffffffffffffffffffff160217905550808273ffffffffffffffffffffffffffffffffffffffff168473ffffffffffffffffffffffffffffffffffffffff167fddf252ad1be2c89b69c2b068fc378daa952ba7f163c4a11628f55a4df523b3ef60405160405180910390a46112998383836001611b20565b505050565b6112af816112aa610e4f565b611b26565b50565b6112bc8282610a21565b61138f5760016006600084815260200190815260200160002060000160008373ffffffffffffffffffffffffffffffffffffffff1673ffffffffffffffffffffffffffffffffffffffff16815260200190815260200160002060006101000a81548160ff021916908315150217905550611334610e4f565b73ffffffffffffffffffffffffffffffffffffffff168173ffffffffffffffffffffffffffffffffffffffff16837f2f8788117e7eff1d82e926ec794901d17c78024a50270940304540a733656f0d60405160405180910390a45b5050565b61139d8282610a21565b156114715760006006600084815260200190815260200160002060000160008373ffffffffffffffffffffffffffffffffffffffff1673ffffffffffffffffffffffffffffffffffffffff16815260200190815260200160002060006101000a81548160ff021916908315150217905550611416610e4f565b73ffffffffffffffffffffffffffffffffffffffff168173ffffffffffffffffffffffffffffffffffffffff16837ff6391f5c32d9c69d2a47ea670b442974b53935d1edc7fd64eb21e047a839171b60405160405180910390a45b5050565b600073ffffffffffffffffffffffffffffffffffffffff168273ffffffffffffffffffffffffffffffffffffffff16036114e4576040517f08c379a00000000000000000000000000000000000000000000000000000000081526004016114db906131a3565b60405180910390fd5b6114ed81611ad9565b1561152d576040517f08c379a00000000000000000000000000000000000000000000000000000000081526004016115249061320f565b60405180910390fd5b61153b600083836001611b1a565b61154481611ad9565b15611584576040517f08c379a000000000000000000000000000000000000000000000000000000000815260040161157b9061320f565b60405180910390fd5b6001600360008473ffffffffffffffffffffffffffffffffffffffff1673ffffffffffffffffffffffffffffffffffffffff16815260200190815260200160002060008282540192505081905550816002600083815260200190815260200160002060006101000a81548173ffffffffffffffffffffffffffffffffffffffff021916908373ffffffffffffffffffffffffffffffffffffffff160217905550808273ffffffffffffffffffffffffffffffffffffffff16600073ffffffffffffffffffffffffffffffffffffffff167fddf252ad1be2c89b69c2b068fc378daa952ba7f163c4a11628f55a4df523b3ef60405160405180910390a461168e600083836001611b20565b5050565b60006002600083815260200190815260200160002060009054906101000a900473ffffffffffffffffffffffffffffffffffffffff169050919050565b8173ffffffffffffffffffffffffffffffffffffffff168373ffffffffffffffffffffffffffffffffffffffff160361173d576040517f08c379a00000000000000000000000000000000000000000000000000000000081526004016117349061327b565b60405180910390fd5b80600560008573ffffffffffffffffffffffffffffffffffffffff1673ffffffffffffffffffffffffffffffffffffffff16815260200190815260200160002060008473ffffffffffffffffffffffffffffffffffffffff1673ffffffffffffffffffffffffffffffffffffffff16815260200190815260200160002060006101000a81548160ff0219169083151502179055508173ffffffffffffffffffffffffffffffffffffffff168373ffffffffffffffffffffffffffffffffffffffff167f17307eab39ab6107e8899845ad3d59bd9653f200f220920489ca2b5937696c318360405161182e919061222f565b60405180910390a3505050565b611846848484610fa5565b61185284848484611bab565b611891576040517f08c379a00000000000000000000000000000000000000000000000000000000081526004016118889061330d565b60405180910390fd5b50505050565b6060600780546118a69061291b565b80601f01602080910402602001604051908101604052809291908181526020018280546118d29061291b565b801561191f5780601f106118f45761010080835404028352916020019161191f565b820191906000526020600020905b81548152906001019060200180831161190257829003601f168201915b5050505050905090565b60606000600161193884611d32565b01905060008167ffffffffffffffff81111561195757611956612614565b5b6040519080825280601f01601f1916602001820160405280156119895781602001600182028036833780820191505090505b509050600082602001820190505b6001156119ec578080600190039150507f3031323334353637383961626364656600000000000000000000000000000000600a86061a8153600a85816119e0576119df61332d565b5b04945060008503611997575b819350505050919050565b60007f80ac58cd000000000000000000000000000000000000000000000000000000007bffffffffffffffffffffffffffffffffffffffffffffffffffffffff1916827bffffffffffffffffffffffffffffffffffffffffffffffffffffffff19161480611ac257507f5b5e139f000000000000000000000000000000000000000000000000000000007bffffffffffffffffffffffffffffffffffffffffffffffffffffffff1916827bffffffffffffffffffffffffffffffffffffffffffffffffffffffff1916145b80611ad25750611ad182611e85565b5b9050919050565b60008073ffffffffffffffffffffffffffffffffffffffff16611afb83611692565b73ffffffffffffffffffffffffffffffffffffffff1614159050919050565b50505050565b50505050565b611b308282610a21565b611ba757611b3d81611eef565b611b4b8360001c6020611f1c565b604051602001611b5c9291906133f4565b6040516020818303038152906040526040517f08c379a0000000000000000000000000000000000000000000000000000000008152600401611b9e91906122da565b60405180910390fd5b5050565b6000611bcc8473ffffffffffffffffffffffffffffffffffffffff16612158565b15611d25578373ffffffffffffffffffffffffffffffffffffffff1663150b7a02611bf5610e4f565b8786866040518563ffffffff1660e01b8152600401611c179493929190613483565b6020604051808303816000875af1925050508015611c5357506040513d601f19601f82011682018060405250810190611c5091906134e4565b60015b611cd5573d8060008114611c83576040519150601f19603f3d011682016040523d82523d6000602084013e611c88565b606091505b506000815103611ccd576040517f08c379a0000000000000000000000000000000000000000000000000000000008152600401611cc49061330d565b60405180910390fd5b805181602001fd5b63150b7a0260e01b7bffffffffffffffffffffffffffffffffffffffffffffffffffffffff1916817bffffffffffffffffffffffffffffffffffffffffffffffffffffffff191614915050611d2a565b600190505b949350505050565b600080600090507a184f03e93ff9f4daa797ed6e38ed64bf6a1f0100000000000000008310611d90577a184f03e93ff9f4daa797ed6e38ed64bf6a1f0100000000000000008381611d8657611d8561332d565b5b0492506040810190505b6d04ee2d6d415b85acef81000000008310611dcd576d04ee2d6d415b85acef81000000008381611dc357611dc261332d565b5b0492506020810190505b662386f26fc100008310611dfc57662386f26fc100008381611df257611df161332d565b5b0492506010810190505b6305f5e1008310611e25576305f5e1008381611e1b57611e1a61332d565b5b0492506008810190505b6127108310611e4a576127108381611e4057611e3f61332d565b5b0492506004810190505b60648310611e6d5760648381611e6357611e6261332d565b5b0492506002810190505b600a8310611e7c576001810190505b80915050919050565b60007f01ffc9a7000000000000000000000000000000000000000000000000000000007bffffffffffffffffffffffffffffffffffffffffffffffffffffffff1916827bffffffffffffffffffffffffffffffffffffffffffffffffffffffff1916149050919050565b6060611f158273ffffffffffffffffffffffffffffffffffffffff16601460ff16611f1c565b9050919050565b606060006002836002611f2f9190613540565b611f399190613582565b67ffffffffffffffff811115611f5257611f51612614565b5b6040519080825280601f01601f191660200182016040528015611f845781602001600182028036833780820191505090505b5090507f300000000000000000000000000000000000000000000000000000000000000081600081518110611fbc57611fbb6135b6565b5b60200101907effffffffffffffffffffffffffffffffffffffffffffffffffffffffffffff1916908160001a9053507f7800000000000000000000000000000000000000000000000000000000000000816001815181106120205761201f6135b6565b5b60200101907effffffffffffffffffffffffffffffffffffffffffffffffffffffffffffff1916908160001a905350600060018460026120609190613540565b61206a9190613582565b90505b600181111561210a577f3031323334353637383961626364656600000000000000000000000000000000600f8616601081106120ac576120ab6135b6565b5b1a60f81b8282815181106120c3576120c26135b6565b5b60200101907effffffffffffffffffffffffffffffffffffffffffffffffffffffffffffff1916908160001a905350600485901c945080612103906135e5565b905061206d565b506000841461214e576040517f08c379a00000000000000000000000000000000000000000000000000000000081526004016121459061365a565b60405180910390fd5b8091505092915050565b6000808273ffffffffffffffffffffffffffffffffffffffff163b119050919050565b6000604051905090565b600080fd5b600080fd5b60007fffffffff0000000000000000000000000000000000000000000000000000000082169050919050565b6121c48161218f565b81146121cf57600080fd5b50565b6000813590506121e1816121bb565b92915050565b6000602082840312156121fd576121fc612185565b5b600061220b848285016121d2565b91505092915050565b60008115159050919050565b61222981612214565b82525050565b60006020820190506122446000830184612220565b92915050565b600081519050919050565b600082825260208201905092915050565b60005b83811015612284578082015181840152602081019050612269565b60008484015250505050565b6000601f19601f8301169050919050565b60006122ac8261224a565b6122b68185612255565b93506122c6818560208601612266565b6122cf81612290565b840191505092915050565b600060208201905081810360008301526122f481846122a1565b905092915050565b6000819050919050565b61230f816122fc565b811461231a57600080fd5b50565b60008135905061232c81612306565b92915050565b60006020828403121561234857612347612185565b5b60006123568482850161231d565b91505092915050565b600073ffffffffffffffffffffffffffffffffffffffff82169050919050565b600061238a8261235f565b9050919050565b61239a8161237f565b82525050565b60006020820190506123b56000830184612391565b92915050565b6123c48161237f565b81146123cf57600080fd5b50565b6000813590506123e1816123bb565b92915050565b600080604083850312156123fe576123fd612185565b5b600061240c858286016123d2565b925050602061241d8582860161231d565b9150509250929050565b6000806000606084860312156124405761243f612185565b5b600061244e868287016123d2565b935050602061245f868287016123d2565b92505060406124708682870161231d565b9150509250925092565b6000819050919050565b61248d8161247a565b811461249857600080fd5b50565b6000813590506124aa81612484565b92915050565b6000602082840312156124c6576124c5612185565b5b60006124d48482850161249b565b91505092915050565b6124e68161247a565b82525050565b600060208201905061250160008301846124dd565b92915050565b6000806040838503121561251e5761251d612185565b5b600061252c8582860161249b565b925050602061253d858286016123d2565b9150509250929050565b60006020828403121561255d5761255c612185565b5b600061256b848285016123d2565b91505092915050565b61257d816122fc565b82525050565b60006020820190506125986000830184612574565b92915050565b6125a781612214565b81146125b257600080fd5b50565b6000813590506125c48161259e565b92915050565b600080604083850312156125e1576125e0612185565b5b60006125ef858286016123d2565b9250506020612600858286016125b5565b9150509250929050565b600080fd5b600080fd5b7f4e487b7100000000000000000000000000000000000000000000000000000000600052604160045260246000fd5b61264c82612290565b810181811067ffffffffffffffff8211171561266b5761266a612614565b5b80604052505050565b600061267e61217b565b905061268a8282612643565b919050565b600067ffffffffffffffff8211156126aa576126a9612614565b5b6126b382612290565b9050602081019050919050565b82818337600083830152505050565b60006126e26126dd8461268f565b612674565b9050828152602081018484840111156126fe576126fd61260f565b5b6127098482856126c0565b509392505050565b600082601f8301126127265761272561260a565b5b81356127368482602086016126cf565b91505092915050565b6000806000806080858703121561275957612758612185565b5b6000612767878288016123d2565b9450506020612778878288016123d2565b93505060406127898782880161231d565b925050606085013567ffffffffffffffff8111156127aa576127a961218a565b5b6127b687828801612711565b91505092959194509250565b600080604083850312156127d9576127d8612185565b5b60006127e7858286016123d2565b92505060206127f8858286016123d2565b9150509250929050565b600067ffffffffffffffff82111561281d5761281c612614565b5b61282682612290565b9050602081019050919050565b600061284661284184612802565b612674565b9050828152602081018484840111156128625761286161260f565b5b61286d8482856126c0565b509392505050565b600082601f83011261288a5761288961260a565b5b813561289a848260208601612833565b91505092915050565b6000602082840312156128b9576128b8612185565b5b600082013567ffffffffffffffff8111156128d7576128d661218a565b5b6128e384828501612875565b91505092915050565b7f4e487b7100000000000000000000000000000000000000000000000000000000600052602260045260246000fd5b6000600282049050600182168061293357607f821691505b602082108103612946576129456128ec565b5b50919050565b7f4552433732313a20617070726f76616c20746f2063757272656e74206f776e6560008201527f7200000000000000000000000000000000000000000000000000000000000000602082015250565b60006129a8602183612255565b91506129b38261294c565b604082019050919050565b600060208201905081810360008301526129d78161299b565b9050919050565b7f4552433732313a20617070726f76652063616c6c6572206973206e6f7420746f60008201527f6b656e206f776e6572206f7220617070726f76656420666f7220616c6c000000602082015250565b6000612a3a603d83612255565b9150612a45826129de565b604082019050919050565b60006020820190508181036000830152612a6981612a2d565b9050919050565b7f4552433732313a2063616c6c6572206973206e6f7420746f6b656e206f776e6560008201527f72206f7220617070726f76656400000000000000000000000000000000000000602082015250565b6000612acc602d83612255565b9150612ad782612a70565b604082019050919050565b60006020820190508181036000830152612afb81612abf565b9050919050565b7f416363657373436f6e74726f6c3a2063616e206f6e6c792072656e6f756e636560008201527f20726f6c657320666f722073656c660000000000000000000000000000000000602082015250565b6000612b5e602f83612255565b9150612b6982612b02565b604082019050919050565b60006020820190508181036000830152612b8d81612b51565b9050919050565b7f43616c6c6572206973206e6f742061206d696e74657200000000000000000000600082015250565b6000612bca601683612255565b9150612bd582612b94565b602082019050919050565b60006020820190508181036000830152612bf981612bbd565b9050919050565b7f4552433732313a20696e76616c696420746f6b656e2049440000000000000000600082015250565b6000612c36601883612255565b9150612c4182612c00565b602082019050919050565b60006020820190508181036000830152612c6581612c29565b9050919050565b7f4552433732313a2061646472657373207a65726f206973206e6f74206120766160008201527f6c6964206f776e65720000000000000000000000000000000000000000000000602082015250565b6000612cc8602983612255565b9150612cd382612c6c565b604082019050919050565b60006020820190508181036000830152612cf781612cbb565b9050919050565b600081905092915050565b6000612d148261224a565b612d1e8185612cfe565b9350612d2e818560208601612266565b80840191505092915050565b7f2e6a736f6e000000000000000000000000000000000000000000000000000000600082015250565b6000612d70600583612cfe565b9150612d7b82612d3a565b600582019050919050565b6000612d928285612d09565b9150612d9e8284612d09565b9150612da982612d63565b91508190509392505050565b60008190508160005260206000209050919050565b60006020601f8301049050919050565b600082821b905092915050565b600060088302612e177fffffffffffffffffffffffffffffffffffffffffffffffffffffffffffffffff82612dda565b612e218683612dda565b95508019841693508086168417925050509392505050565b6000819050919050565b6000612e5e612e59612e54846122fc565b612e39565b6122fc565b9050919050565b6000819050919050565b612e7883612e43565b612e8c612e8482612e65565b848454612de7565b825550505050565b600090565b612ea1612e94565b612eac818484612e6f565b505050565b5b81811015612ed057612ec5600082612e99565b600181019050612eb2565b5050565b601f821115612f1557612ee681612db5565b612eef84612dca565b81016020851015612efe578190505b612f12612f0a85612dca565b830182612eb1565b50505b505050565b600082821c905092915050565b6000612f3860001984600802612f1a565b1980831691505092915050565b6000612f518383612f27565b9150826002028217905092915050565b612f6a8261224a565b67ffffffffffffffff811115612f8357612f82612614565b5b612f8d825461291b565b612f98828285612ed4565b600060209050601f831160018114612fcb5760008415612fb9578287015190505b612fc38582612f45565b86555061302b565b601f198416612fd986612db5565b60005b8281101561300157848901518255600182019150602085019450602081019050612fdc565b8683101561301e578489015161301a601f891682612f27565b8355505b6001600288020188555050505b505050505050565b7f4552433732313a207472616e736665722066726f6d20696e636f72726563742060008201527f6f776e6572000000000000000000000000000000000000000000000000000000602082015250565b600061308f602583612255565b915061309a82613033565b604082019050919050565b600060208201905081810360008301526130be81613082565b9050919050565b7f4552433732313a207472616e7366657220746f20746865207a65726f2061646460008201527f7265737300000000000000000000000000000000000000000000000000000000602082015250565b6000613121602483612255565b915061312c826130c5565b604082019050919050565b6000602082019050818103600083015261315081613114565b9050919050565b7f4552433732313a206d696e7420746f20746865207a65726f2061646472657373600082015250565b600061318d602083612255565b915061319882613157565b602082019050919050565b600060208201905081810360008301526131bc81613180565b9050919050565b7f4552433732313a20746f6b656e20616c7265616479206d696e74656400000000600082015250565b60006131f9601c83612255565b9150613204826131c3565b602082019050919050565b60006020820190508181036000830152613228816131ec565b9050919050565b7f4552433732313a20617070726f766520746f2063616c6c657200000000000000600082015250565b6000613265601983612255565b91506132708261322f565b602082019050919050565b6000602082019050818103600083015261329481613258565b9050919050565b7f4552433732313a207472616e7366657220746f206e6f6e20455243373231526560008201527f63656976657220696d706c656d656e7465720000000000000000000000000000602082015250565b60006132f7603283612255565b91506133028261329b565b604082019050919050565b60006020820190508181036000830152613326816132ea565b9050919050565b7f4e487b7100000000000000000000000000000000000000000000000000000000600052601260045260246000fd5b7f416363657373436f6e74726f6c3a206163636f756e7420000000000000000000600082015250565b6000613392601783612cfe565b915061339d8261335c565b601782019050919050565b7f206973206d697373696e6720726f6c6520000000000000000000000000000000600082015250565b60006133de601183612cfe565b91506133e9826133a8565b601182019050919050565b60006133ff82613385565b915061340b8285612d09565b9150613416826133d1565b91506134228284612d09565b91508190509392505050565b600081519050919050565b600082825260208201905092915050565b60006134558261342e565b61345f8185613439565b935061346f818560208601612266565b61347881612290565b840191505092915050565b60006080820190506134986000830187612391565b6134a56020830186612391565b6134b26040830185612574565b81810360608301526134c4818461344a565b905095945050505050565b6000815190506134de816121bb565b92915050565b6000602082840312156134fa576134f9612185565b5b6000613508848285016134cf565b91505092915050565b7f4e487b7100000000000000000000000000000000000000000000000000000000600052601160045260246000fd5b600061354b826122fc565b9150613556836122fc565b9250828202613564816122fc565b9150828204841483151761357b5761357a613511565b5b5092915050565b600061358d826122fc565b9150613598836122fc565b92508282019050808211156135b0576135af613511565b5b92915050565b7f4e487b7100000000000000000000000000000000000000000000000000000000600052603260045260246000fd5b60006135f0826122fc565b91506000820361360357613602613511565b5b600182039050919050565b7f537472696e67733a20686578206c656e67746820696e73756666696369656e74600082015250565b6000613644602083612255565b915061364f8261360e565b602082019050919050565b6000602082019050818103600083015261367381613637565b905091905056fea2646970667358221220988b5b92144eb01b8139d35fc34ffd144f025b5c1a8a602aff9a75786d3d58cd64736f6c63430008110033",
  "devdoc": {
    "kind": "dev",
    "methods": {
      "approve(address,uint256)": {
        "details": "See {IERC721-approve}."
      },
      "balanceOf(address)": {
        "details": "See {IERC721-balanceOf}."
      },
      "getApproved(uint256)": {
        "details": "See {IERC721-getApproved}."
      },
      "getRoleAdmin(bytes32)": {
        "details": "Returns the admin role that controls `role`. See {grantRole} and {revokeRole}. To change a role's admin, use {_setRoleAdmin}."
      },
      "grantRole(bytes32,address)": {
        "details": "Grants `role` to `account`. If `account` had not been already granted `role`, emits a {RoleGranted} event. Requirements: - the caller must have ``role``'s admin role. May emit a {RoleGranted} event."
      },
      "hasRole(bytes32,address)": {
        "details": "Returns `true` if `account` has been granted `role`."
      },
      "isApprovedForAll(address,address)": {
        "details": "See {IERC721-isApprovedForAll}."
      },
      "name()": {
        "details": "See {IERC721Metadata-name}."
      },
      "ownerOf(uint256)": {
        "details": "See {IERC721-ownerOf}."
      },
      "renounceRole(bytes32,address)": {
        "details": "Revokes `role` from the calling account. Roles are often managed via {grantRole} and {revokeRole}: this function's purpose is to provide a mechanism for accounts to lose their privileges if they are compromised (such as when a trusted device is misplaced). If the calling account had been revoked `role`, emits a {RoleRevoked} event. Requirements: - the caller must be `account`. May emit a {RoleRevoked} event."
      },
      "revokeRole(bytes32,address)": {
        "details": "Revokes `role` from `account`. If `account` had been granted `role`, emits a {RoleRevoked} event. Requirements: - the caller must have ``role``'s admin role. May emit a {RoleRevoked} event."
      },
      "safeTransferFrom(address,address,uint256)": {
        "details": "See {IERC721-safeTransferFrom}."
      },
      "safeTransferFrom(address,address,uint256,bytes)": {
        "details": "See {IERC721-safeTransferFrom}."
      },
      "setApprovalForAll(address,bool)": {
        "details": "See {IERC721-setApprovalForAll}."
      },
      "symbol()": {
        "details": "See {IERC721Metadata-symbol}."
      },
      "tokenURI(uint256)": {
        "details": "See {IERC721Metadata-tokenURI}."
      },
      "transferFrom(address,address,uint256)": {
        "details": "See {IERC721-transferFrom}."
      }
    },
    "version": 1
  },
  "userdoc": {
    "kind": "user",
    "methods": {},
    "version": 1
  },
  "storageLayout": {
    "storage": [
      {
        "astId": 414,
        "contract": "contracts/NFT/SkaleMappedERC721Token.sol:SkaleMappedERC721Token",
        "label": "_name",
        "offset": 0,
        "slot": "0",
        "type": "t_string_storage"
      },
      {
        "astId": 416,
        "contract": "contracts/NFT/SkaleMappedERC721Token.sol:SkaleMappedERC721Token",
        "label": "_symbol",
        "offset": 0,
        "slot": "1",
        "type": "t_string_storage"
      },
      {
        "astId": 420,
        "contract": "contracts/NFT/SkaleMappedERC721Token.sol:SkaleMappedERC721Token",
        "label": "_owners",
        "offset": 0,
        "slot": "2",
        "type": "t_mapping(t_uint256,t_address)"
      },
      {
        "astId": 424,
        "contract": "contracts/NFT/SkaleMappedERC721Token.sol:SkaleMappedERC721Token",
        "label": "_balances",
        "offset": 0,
        "slot": "3",
        "type": "t_mapping(t_address,t_uint256)"
      },
      {
        "astId": 428,
        "contract": "contracts/NFT/SkaleMappedERC721Token.sol:SkaleMappedERC721Token",
        "label": "_tokenApprovals",
        "offset": 0,
        "slot": "4",
        "type": "t_mapping(t_uint256,t_address)"
      },
      {
        "astId": 434,
        "contract": "contracts/NFT/SkaleMappedERC721Token.sol:SkaleMappedERC721Token",
        "label": "_operatorApprovals",
        "offset": 0,
        "slot": "5",
        "type": "t_mapping(t_address,t_mapping(t_address,t_bool))"
      },
      {
        "astId": 24,
        "contract": "contracts/NFT/SkaleMappedERC721Token.sol:SkaleMappedERC721Token",
        "label": "_roles",
        "offset": 0,
        "slot": "6",
        "type": "t_mapping(t_bytes32,t_struct(RoleData)19_storage)"
      },
      {
        "astId": 3097,
        "contract": "contracts/NFT/SkaleMappedERC721Token.sol:SkaleMappedERC721Token",
        "label": "_baseEndpoint",
        "offset": 0,
        "slot": "7",
        "type": "t_string_storage"
      }
    ],
    "types": {
      "t_address": {
        "encoding": "inplace",
        "label": "address",
        "numberOfBytes": "20"
      },
      "t_bool": {
        "encoding": "inplace",
        "label": "bool",
        "numberOfBytes": "1"
      },
      "t_bytes32": {
        "encoding": "inplace",
        "label": "bytes32",
        "numberOfBytes": "32"
      },
      "t_mapping(t_address,t_bool)": {
        "encoding": "mapping",
        "key": "t_address",
        "label": "mapping(address => bool)",
        "numberOfBytes": "32",
        "value": "t_bool"
      },
      "t_mapping(t_address,t_mapping(t_address,t_bool))": {
        "encoding": "mapping",
        "key": "t_address",
        "label": "mapping(address => mapping(address => bool))",
        "numberOfBytes": "32",
        "value": "t_mapping(t_address,t_bool)"
      },
      "t_mapping(t_address,t_uint256)": {
        "encoding": "mapping",
        "key": "t_address",
        "label": "mapping(address => uint256)",
        "numberOfBytes": "32",
        "value": "t_uint256"
      },
      "t_mapping(t_bytes32,t_struct(RoleData)19_storage)": {
        "encoding": "mapping",
        "key": "t_bytes32",
        "label": "mapping(bytes32 => struct AccessControl.RoleData)",
        "numberOfBytes": "32",
        "value": "t_struct(RoleData)19_storage"
      },
      "t_mapping(t_uint256,t_address)": {
        "encoding": "mapping",
        "key": "t_uint256",
        "label": "mapping(uint256 => address)",
        "numberOfBytes": "32",
        "value": "t_address"
      },
      "t_string_storage": {
        "encoding": "bytes",
        "label": "string",
        "numberOfBytes": "32"
      },
      "t_struct(RoleData)19_storage": {
        "encoding": "inplace",
        "label": "struct AccessControl.RoleData",
        "members": [
          {
            "astId": 16,
            "contract": "contracts/NFT/SkaleMappedERC721Token.sol:SkaleMappedERC721Token",
            "label": "members",
            "offset": 0,
            "slot": "0",
            "type": "t_mapping(t_address,t_bool)"
          },
          {
            "astId": 18,
            "contract": "contracts/NFT/SkaleMappedERC721Token.sol:SkaleMappedERC721Token",
            "label": "adminRole",
            "offset": 0,
            "slot": "1",
            "type": "t_bytes32"
          }
        ],
        "numberOfBytes": "64"
      },
      "t_uint256": {
        "encoding": "inplace",
        "label": "uint256",
        "numberOfBytes": "32"
      }
    }
  }
}