{
  "address": "0x4048C4dd6eccF1Dc23b068211fDf20AD19602e50",
  "abi": [
    {
      "inputs": [
        {
          "internalType": "string",
          "name": "name",
          "type": "string"
        },
        {
          "internalType": "string",
          "name": "symbol",
          "type": "string"
        },
        {
          "internalType": "address",
          "name": "manager",
          "type": "address"
        }
      ],
      "stateMutability": "nonpayable",
      "type": "constructor"
    },
    {
      "anonymous": false,
      "inputs": [
        {
          "indexed": true,
          "internalType": "address",
          "name": "owner",
          "type": "address"
        },
        {
          "indexed": true,
          "internalType": "address",
          "name": "approved",
          "type": "address"
        },
        {
          "indexed": true,
          "internalType": "uint256",
          "name": "tokenId",
          "type": "uint256"
        }
      ],
      "name": "Approval",
      "type": "event"
    },
    {
      "anonymous": false,
      "inputs": [
        {
          "indexed": true,
          "internalType": "address",
          "name": "owner",
          "type": "address"
        },
        {
          "indexed": true,
          "internalType": "address",
          "name": "operator",
          "type": "address"
        },
        {
          "indexed": false,
          "internalType": "bool",
          "name": "approved",
          "type": "bool"
        }
      ],
      "name": "ApprovalForAll",
      "type": "event"
    },
    {
      "anonymous": false,
      "inputs": [
        {
          "indexed": true,
          "internalType": "bytes32",
          "name": "role",
          "type": "bytes32"
        },
        {
          "indexed": true,
          "internalType": "bytes32",
          "name": "previousAdminRole",
          "type": "bytes32"
        },
        {
          "indexed": true,
          "internalType": "bytes32",
          "name": "newAdminRole",
          "type": "bytes32"
        }
      ],
      "name": "RoleAdminChanged",
      "type": "event"
    },
    {
      "anonymous": false,
      "inputs": [
        {
          "indexed": true,
          "internalType": "bytes32",
          "name": "role",
          "type": "bytes32"
        },
        {
          "indexed": true,
          "internalType": "address",
          "name": "account",
          "type": "address"
        },
        {
          "indexed": true,
          "internalType": "address",
          "name": "sender",
          "type": "address"
        }
      ],
      "name": "RoleGranted",
      "type": "event"
    },
    {
      "anonymous": false,
      "inputs": [
        {
          "indexed": true,
          "internalType": "bytes32",
          "name": "role",
          "type": "bytes32"
        },
        {
          "indexed": true,
          "internalType": "address",
          "name": "account",
          "type": "address"
        },
        {
          "indexed": true,
          "internalType": "address",
          "name": "sender",
          "type": "address"
        }
      ],
      "name": "RoleRevoked",
      "type": "event"
    },
    {
      "anonymous": false,
      "inputs": [
        {
          "indexed": true,
          "internalType": "address",
          "name": "from",
          "type": "address"
        },
        {
          "indexed": true,
          "internalType": "address",
          "name": "to",
          "type": "address"
        },
        {
          "indexed": true,
          "internalType": "uint256",
          "name": "tokenId",
          "type": "uint256"
        }
      ],
      "name": "Transfer",
      "type": "event"
    },
    {
      "inputs": [],
      "name": "BURNER_ROLE",
      "outputs": [
        {
          "internalType": "bytes32",
          "name": "",
          "type": "bytes32"
        }
      ],
      "stateMutability": "view",
      "type": "function"
    },
    {
      "inputs": [],
      "name": "DEFAULT_ADMIN_ROLE",
      "outputs": [
        {
          "internalType": "bytes32",
          "name": "",
          "type": "bytes32"
        }
      ],
      "stateMutability": "view",
      "type": "function"
    },
    {
      "inputs": [],
      "name": "MINTER_ROLE",
      "outputs": [
        {
          "internalType": "bytes32",
          "name": "",
          "type": "bytes32"
        }
      ],
      "stateMutability": "view",
      "type": "function"
    },
    {
      "inputs": [],
      "name": "SET_URI_ROLE",
      "outputs": [
        {
          "internalType": "bytes32",
          "name": "",
          "type": "bytes32"
        }
      ],
      "stateMutability": "view",
      "type": "function"
    },
    {
      "inputs": [
        {
          "internalType": "address",
          "name": "to",
          "type": "address"
        },
        {
          "internalType": "uint256",
          "name": "tokenId",
          "type": "uint256"
        }
      ],
      "name": "approve",
      "outputs": [],
      "stateMutability": "nonpayable",
      "type": "function"
    },
    {
      "inputs": [
        {
          "internalType": "address",
          "name": "owner",
          "type": "address"
        }
      ],
      "name": "balanceOf",
      "outputs": [
        {
          "internalType": "uint256",
          "name": "",
          "type": "uint256"
        }
      ],
      "stateMutability": "view",
      "type": "function"
    },
    {
      "inputs": [
        {
          "internalType": "uint256",
          "name": "tokenId",
          "type": "uint256"
        }
      ],
      "name": "burn",
      "outputs": [],
      "stateMutability": "nonpayable",
      "type": "function"
    },
    {
      "inputs": [
        {
          "internalType": "uint256",
          "name": "tokenId",
          "type": "uint256"
        }
      ],
      "name": "getApproved",
      "outputs": [
        {
          "internalType": "address",
          "name": "",
          "type": "address"
        }
      ],
      "stateMutability": "view",
      "type": "function"
    },
    {
      "inputs": [
        {
          "internalType": "bytes32",
          "name": "role",
          "type": "bytes32"
        }
      ],
      "name": "getRoleAdmin",
      "outputs": [
        {
          "internalType": "bytes32",
          "name": "",
          "type": "bytes32"
        }
      ],
      "stateMutability": "view",
      "type": "function"
    },
    {
      "inputs": [
        {
          "internalType": "bytes32",
          "name": "role",
          "type": "bytes32"
        },
        {
          "internalType": "address",
          "name": "account",
          "type": "address"
        }
      ],
      "name": "grantRole",
      "outputs": [],
      "stateMutability": "nonpayable",
      "type": "function"
    },
    {
      "inputs": [
        {
          "internalType": "bytes32",
          "name": "role",
          "type": "bytes32"
        },
        {
          "internalType": "address",
          "name": "account",
          "type": "address"
        }
      ],
      "name": "hasRole",
      "outputs": [
        {
          "internalType": "bool",
          "name": "",
          "type": "bool"
        }
      ],
      "stateMutability": "view",
      "type": "function"
    },
    {
      "inputs": [
        {
          "internalType": "address",
          "name": "owner",
          "type": "address"
        },
        {
          "internalType": "address",
          "name": "operator",
          "type": "address"
        }
      ],
      "name": "isApprovedForAll",
      "outputs": [
        {
          "internalType": "bool",
          "name": "",
          "type": "bool"
        }
      ],
      "stateMutability": "view",
      "type": "function"
    },
    {
      "inputs": [
        {
          "internalType": "address",
          "name": "to",
          "type": "address"
        },
        {
          "internalType": "uint256",
          "name": "tokenId",
          "type": "uint256"
        }
      ],
      "name": "mint",
      "outputs": [],
      "stateMutability": "nonpayable",
      "type": "function"
    },
    {
      "inputs": [],
      "name": "name",
      "outputs": [
        {
          "internalType": "string",
          "name": "",
          "type": "string"
        }
      ],
      "stateMutability": "view",
      "type": "function"
    },
    {
      "inputs": [
        {
          "internalType": "uint256",
          "name": "tokenId",
          "type": "uint256"
        }
      ],
      "name": "ownerOf",
      "outputs": [
        {
          "internalType": "address",
          "name": "",
          "type": "address"
        }
      ],
      "stateMutability": "view",
      "type": "function"
    },
    {
      "inputs": [
        {
          "internalType": "bytes32",
          "name": "role",
          "type": "bytes32"
        },
        {
          "internalType": "address",
          "name": "account",
          "type": "address"
        }
      ],
      "name": "renounceRole",
      "outputs": [],
      "stateMutability": "nonpayable",
      "type": "function"
    },
    {
      "inputs": [
        {
          "internalType": "bytes32",
          "name": "role",
          "type": "bytes32"
        },
        {
          "internalType": "address",
          "name": "account",
          "type": "address"
        }
      ],
      "name": "revokeRole",
      "outputs": [],
      "stateMutability": "nonpayable",
      "type": "function"
    },
    {
      "inputs": [
        {
          "internalType": "address",
          "name": "from",
          "type": "address"
        },
        {
          "internalType": "address",
          "name": "to",
          "type": "address"
        },
        {
          "internalType": "uint256",
          "name": "tokenId",
          "type": "uint256"
        }
      ],
      "name": "safeTransferFrom",
      "outputs": [],
      "stateMutability": "nonpayable",
      "type": "function"
    },
    {
      "inputs": [
        {
          "internalType": "address",
          "name": "from",
          "type": "address"
        },
        {
          "internalType": "address",
          "name": "to",
          "type": "address"
        },
        {
          "internalType": "uint256",
          "name": "tokenId",
          "type": "uint256"
        },
        {
          "internalType": "bytes",
          "name": "data",
          "type": "bytes"
        }
      ],
      "name": "safeTransferFrom",
      "outputs": [],
      "stateMutability": "nonpayable",
      "type": "function"
    },
    {
      "inputs": [
        {
          "internalType": "address",
          "name": "operator",
          "type": "address"
        },
        {
          "internalType": "bool",
          "name": "approved",
          "type": "bool"
        }
      ],
      "name": "setApprovalForAll",
      "outputs": [],
      "stateMutability": "nonpayable",
      "type": "function"
    },
    {
      "inputs": [
        {
          "internalType": "string",
          "name": "endpoint",
          "type": "string"
        }
      ],
      "name": "setBaseEndpoint",
      "outputs": [],
      "stateMutability": "nonpayable",
      "type": "function"
    },
    {
      "inputs": [
        {
          "internalType": "bytes4",
          "name": "interfaceId",
          "type": "bytes4"
        }
      ],
      "name": "supportsInterface",
      "outputs": [
        {
          "internalType": "bool",
          "name": "",
          "type": "bool"
        }
      ],
      "stateMutability": "view",
      "type": "function"
    },
    {
      "inputs": [],
      "name": "symbol",
      "outputs": [
        {
          "internalType": "string",
          "name": "",
          "type": "string"
        }
      ],
      "stateMutability": "view",
      "type": "function"
    },
    {
      "inputs": [
        {
          "internalType": "uint256",
          "name": "tokenId",
          "type": "uint256"
        }
      ],
      "name": "tokenURI",
      "outputs": [
        {
          "internalType": "string",
          "name": "",
          "type": "string"
        }
      ],
      "stateMutability": "view",
      "type": "function"
    },
    {
      "inputs": [
        {
          "internalType": "address",
          "name": "from",
          "type": "address"
        },
        {
          "internalType": "address",
          "name": "to",
          "type": "address"
        },
        {
          "internalType": "uint256",
          "name": "tokenId",
          "type": "uint256"
        }
      ],
      "name": "transferFrom",
      "outputs": [],
      "stateMutability": "nonpayable",
      "type": "function"
    }
  ],
  "transactionHash": "0xf4b28a5bf6a81d1793fdbef304c24f1a3756f10d909568c44e6daeda85debcdf",
  "args": [
    "Target721",
    "T721",
    "0x8f2aC7323316974c05Eb3ADc72810f92a2ad471E"
  ],
  "numDeployments": 1,
  "solcInputHash": "0ff48f0acec2ef8bf0e8e808f0d030bc",
  "bytecode": "0x60806040523480156200001157600080fd5b5060405162004084380380620040848339818101604052810190620000379190620004ac565b828281600090816200004a919062000791565b5080600190816200005c919062000791565b505050620000886000801b73d2445190000000000000000000000000000000006200014f60201b60201c565b620000ce7f9f2df0fed2c77648de5860a4cc508cd0818c85b8b8a1ab4ceeef8d981c8956a673d2aaa006000000000000000000000000000000006200014f60201b60201c565b620001147f3c11d16cbaffd01df69ce1c404f6340ee057498f5f00246190ea54220576a84873d2aaa006000000000000000000000000000000006200014f60201b60201c565b620001467f35f075f92692a81a158b1a9ac894d6718b345a2041632e1d86ad41e77d4e86c8826200014f60201b60201c565b50505062000878565b6200016182826200024160201b60201c565b6200023d5760016006600084815260200190815260200160002060000160008373ffffffffffffffffffffffffffffffffffffffff1673ffffffffffffffffffffffffffffffffffffffff16815260200190815260200160002060006101000a81548160ff021916908315150217905550620001e2620002ac60201b60201c565b73ffffffffffffffffffffffffffffffffffffffff168173ffffffffffffffffffffffffffffffffffffffff16837f2f8788117e7eff1d82e926ec794901d17c78024a50270940304540a733656f0d60405160405180910390a45b5050565b60006006600084815260200190815260200160002060000160008373ffffffffffffffffffffffffffffffffffffffff1673ffffffffffffffffffffffffffffffffffffffff16815260200190815260200160002060009054906101000a900460ff16905092915050565b600033905090565b6000604051905090565b600080fd5b600080fd5b600080fd5b600080fd5b6000601f19601f8301169050919050565b7f4e487b7100000000000000000000000000000000000000000000000000000000600052604160045260246000fd5b6200031d82620002d2565b810181811067ffffffffffffffff821117156200033f576200033e620002e3565b5b80604052505050565b600062000354620002b4565b905062000362828262000312565b919050565b600067ffffffffffffffff821115620003855762000384620002e3565b5b6200039082620002d2565b9050602081019050919050565b60005b83811015620003bd578082015181840152602081019050620003a0565b60008484015250505050565b6000620003e0620003da8462000367565b62000348565b905082815260208101848484011115620003ff57620003fe620002cd565b5b6200040c8482856200039d565b509392505050565b600082601f8301126200042c576200042b620002c8565b5b81516200043e848260208601620003c9565b91505092915050565b600073ffffffffffffffffffffffffffffffffffffffff82169050919050565b6000620004748262000447565b9050919050565b620004868162000467565b81146200049257600080fd5b50565b600081519050620004a6816200047b565b92915050565b600080600060608486031215620004c857620004c7620002be565b5b600084015167ffffffffffffffff811115620004e957620004e8620002c3565b5b620004f78682870162000414565b935050602084015167ffffffffffffffff8111156200051b576200051a620002c3565b5b620005298682870162000414565b92505060406200053c8682870162000495565b9150509250925092565b600081519050919050565b7f4e487b7100000000000000000000000000000000000000000000000000000000600052602260045260246000fd5b600060028204905060018216806200059957607f821691505b602082108103620005af57620005ae62000551565b5b50919050565b60008190508160005260206000209050919050565b60006020601f8301049050919050565b600082821b905092915050565b600060088302620006197fffffffffffffffffffffffffffffffffffffffffffffffffffffffffffffffff82620005da565b620006258683620005da565b95508019841693508086168417925050509392505050565b6000819050919050565b6000819050919050565b6000620006726200066c62000666846200063d565b62000647565b6200063d565b9050919050565b6000819050919050565b6200068e8362000651565b620006a66200069d8262000679565b848454620005e7565b825550505050565b600090565b620006bd620006ae565b620006ca81848462000683565b505050565b5b81811015620006f257620006e6600082620006b3565b600181019050620006d0565b5050565b601f82111562000741576200070b81620005b5565b6200071684620005ca565b8101602085101562000726578190505b6200073e6200073585620005ca565b830182620006cf565b50505b505050565b600082821c905092915050565b6000620007666000198460080262000746565b1980831691505092915050565b600062000781838362000753565b9150826002028217905092915050565b6200079c8262000546565b67ffffffffffffffff811115620007b857620007b7620002e3565b5b620007c4825462000580565b620007d1828285620006f6565b600060209050601f831160018114620008095760008415620007f4578287015190505b62000800858262000773565b86555062000870565b601f1984166200081986620005b5565b60005b8281101562000843578489015182556001820191506020850194506020810190506200081c565b868310156200086357848901516200085f601f89168262000753565b8355505b6001600288020188555050505b505050505050565b6137fc80620008886000396000f3fe608060405234801561001057600080fd5b50600436106101735760003560e01c80635d6f218a116100de578063a22cb46511610097578063d539139311610071578063d53913931461045a578063d547741f14610478578063e985e9c514610494578063f6b7c8e7146104c457610173565b8063a22cb465146103f2578063b88d4fde1461040e578063c87b56dd1461042a57610173565b80635d6f218a146103085780636352211e1461032657806370a082311461035657806391d148541461038657806395d89b41146103b6578063a217fddf146103d457610173565b8063282c51f311610130578063282c51f31461025e5780632f2ff15d1461027c57806336568abe1461029857806340c10f19146102b457806342842e0e146102d057806342966c68146102ec57610173565b806301ffc9a71461017857806306fdde03146101a8578063081812fc146101c6578063095ea7b3146101f657806323b872dd14610212578063248a9ca31461022e575b600080fd5b610192600480360381019061018d9190612333565b6104e0565b60405161019f919061237b565b60405180910390f35b6101b06104f2565b6040516101bd9190612426565b60405180910390f35b6101e060048036038101906101db919061247e565b610584565b6040516101ed91906124ec565b60405180910390f35b610210600480360381019061020b9190612533565b6105ca565b005b61022c60048036038101906102279190612573565b6106e1565b005b610248600480360381019061024391906125fc565b610741565b6040516102559190612638565b60405180910390f35b610266610761565b6040516102739190612638565b60405180910390f35b61029660048036038101906102919190612653565b610785565b005b6102b260048036038101906102ad9190612653565b6107a6565b005b6102ce60048036038101906102c99190612533565b610829565b005b6102ea60048036038101906102e59190612573565b6108a0565b005b6103066004803603810190610301919061247e565b6108c0565b005b610310610935565b60405161031d9190612638565b60405180910390f35b610340600480360381019061033b919061247e565b610959565b60405161034d91906124ec565b60405180910390f35b610370600480360381019061036b9190612693565b6109df565b60405161037d91906126cf565b60405180910390f35b6103a0600480360381019061039b9190612653565b610a96565b6040516103ad919061237b565b60405180910390f35b6103be610b01565b6040516103cb9190612426565b60405180910390f35b6103dc610b93565b6040516103e99190612638565b60405180910390f35b61040c60048036038101906104079190612716565b610b9a565b005b6104286004803603810190610423919061288b565b610bb0565b005b610444600480360381019061043f919061247e565b610c12565b6040516104519190612426565b60405180910390f35b610462610c71565b60405161046f9190612638565b60405180910390f35b610492600480360381019061048d9190612653565b610c95565b005b6104ae60048036038101906104a9919061290e565b610cb6565b6040516104bb919061237b565b60405180910390f35b6104de60048036038101906104d991906129ef565b610d4a565b005b60006104eb82610d88565b9050919050565b60606000805461050190612a67565b80601f016020809104026020016040519081016040528092919081815260200182805461052d90612a67565b801561057a5780601f1061054f5761010080835404028352916020019161057a565b820191906000526020600020905b81548152906001019060200180831161055d57829003601f168201915b5050505050905090565b600061058f82610e02565b6004600083815260200190815260200160002060009054906101000a900473ffffffffffffffffffffffffffffffffffffffff169050919050565b60006105d582610959565b90508073ffffffffffffffffffffffffffffffffffffffff168373ffffffffffffffffffffffffffffffffffffffff1603610645576040517f08c379a000000000000000000000000000000000000000000000000000000000815260040161063c90612b0a565b60405180910390fd5b8073ffffffffffffffffffffffffffffffffffffffff16610664610e4d565b73ffffffffffffffffffffffffffffffffffffffff16148061069357506106928161068d610e4d565b610cb6565b5b6106d2576040517f08c379a00000000000000000000000000000000000000000000000000000000081526004016106c990612b9c565b60405180910390fd5b6106dc8383610e55565b505050565b6106f26106ec610e4d565b82610f0e565b610731576040517f08c379a000000000000000000000000000000000000000000000000000000000815260040161072890612c2e565b60405180910390fd5b61073c838383610fa3565b505050565b600060066000838152602001908152602001600020600101549050919050565b7f3c11d16cbaffd01df69ce1c404f6340ee057498f5f00246190ea54220576a84881565b61078e82610741565b6107978161129c565b6107a183836112b0565b505050565b6107ae610e4d565b73ffffffffffffffffffffffffffffffffffffffff168173ffffffffffffffffffffffffffffffffffffffff161461081b576040517f08c379a000000000000000000000000000000000000000000000000000000000815260040161081290612cc0565b60405180910390fd5b6108258282611391565b5050565b6108537f9f2df0fed2c77648de5860a4cc508cd0818c85b8b8a1ab4ceeef8d981c8956a633610a96565b610892576040517f08c379a000000000000000000000000000000000000000000000000000000000815260040161088990612d2c565b60405180910390fd5b61089c8282611473565b5050565b6108bb83838360405180602001604052806000815250610bb0565b505050565b6108ea7f3c11d16cbaffd01df69ce1c404f6340ee057498f5f00246190ea54220576a84833610a96565b610929576040517f08c379a000000000000000000000000000000000000000000000000000000000815260040161092090612d2c565b60405180910390fd5b61093281611690565b50565b7f35f075f92692a81a158b1a9ac894d6718b345a2041632e1d86ad41e77d4e86c881565b600080610965836117de565b9050600073ffffffffffffffffffffffffffffffffffffffff168173ffffffffffffffffffffffffffffffffffffffff16036109d6576040517f08c379a00000000000000000000000000000000000000000000000000000000081526004016109cd90612d98565b60405180910390fd5b80915050919050565b60008073ffffffffffffffffffffffffffffffffffffffff168273ffffffffffffffffffffffffffffffffffffffff1603610a4f576040517f08c379a0000000000000000000000000000000000000000000000000000000008152600401610a4690612e2a565b60405180910390fd5b600360008373ffffffffffffffffffffffffffffffffffffffff1673ffffffffffffffffffffffffffffffffffffffff168152602001908152602001600020549050919050565b60006006600084815260200190815260200160002060000160008373ffffffffffffffffffffffffffffffffffffffff1673ffffffffffffffffffffffffffffffffffffffff16815260200190815260200160002060009054906101000a900460ff16905092915050565b606060018054610b1090612a67565b80601f0160208091040260200160405190810160405280929190818152602001828054610b3c90612a67565b8015610b895780601f10610b5e57610100808354040283529160200191610b89565b820191906000526020600020905b815481529060010190602001808311610b6c57829003601f168201915b5050505050905090565b6000801b81565b610bac610ba5610e4d565b838361181b565b5050565b610bc1610bbb610e4d565b83610f0e565b610c00576040517f08c379a0000000000000000000000000000000000000000000000000000000008152600401610bf790612c2e565b60405180910390fd5b610c0c84848484611987565b50505050565b60606000610c1e6119e3565b90506000815111610c3e5760405180602001604052806000815250610c69565b80610c4884611a75565b604051602001610c59929190612ed2565b6040516020818303038152906040525b915050919050565b7f9f2df0fed2c77648de5860a4cc508cd0818c85b8b8a1ab4ceeef8d981c8956a681565b610c9e82610741565b610ca78161129c565b610cb18383611391565b505050565b6000600560008473ffffffffffffffffffffffffffffffffffffffff1673ffffffffffffffffffffffffffffffffffffffff16815260200190815260200160002060008373ffffffffffffffffffffffffffffffffffffffff1673ffffffffffffffffffffffffffffffffffffffff16815260200190815260200160002060009054906101000a900460ff16905092915050565b7f35f075f92692a81a158b1a9ac894d6718b345a2041632e1d86ad41e77d4e86c8610d748161129c565b8160079081610d8391906130ad565b505050565b60007f7965db0b000000000000000000000000000000000000000000000000000000007bffffffffffffffffffffffffffffffffffffffffffffffffffffffff1916827bffffffffffffffffffffffffffffffffffffffffffffffffffffffff19161480610dfb5750610dfa82611b43565b5b9050919050565b610e0b81611c25565b610e4a576040517f08c379a0000000000000000000000000000000000000000000000000000000008152600401610e4190612d98565b60405180910390fd5b50565b600033905090565b816004600083815260200190815260200160002060006101000a81548173ffffffffffffffffffffffffffffffffffffffff021916908373ffffffffffffffffffffffffffffffffffffffff160217905550808273ffffffffffffffffffffffffffffffffffffffff16610ec883610959565b73ffffffffffffffffffffffffffffffffffffffff167f8c5be1e5ebec7d5bd14f71427d1e84f3dd0314c0f7b2291e5b200ac8c7c3b92560405160405180910390a45050565b600080610f1a83610959565b90508073ffffffffffffffffffffffffffffffffffffffff168473ffffffffffffffffffffffffffffffffffffffff161480610f5c5750610f5b8185610cb6565b5b80610f9a57508373ffffffffffffffffffffffffffffffffffffffff16610f8284610584565b73ffffffffffffffffffffffffffffffffffffffff16145b91505092915050565b8273ffffffffffffffffffffffffffffffffffffffff16610fc382610959565b73ffffffffffffffffffffffffffffffffffffffff1614611019576040517f08c379a0000000000000000000000000000000000000000000000000000000008152600401611010906131f1565b60405180910390fd5b600073ffffffffffffffffffffffffffffffffffffffff168273ffffffffffffffffffffffffffffffffffffffff1603611088576040517f08c379a000000000000000000000000000000000000000000000000000000000815260040161107f90613283565b60405180910390fd5b6110958383836001611c66565b8273ffffffffffffffffffffffffffffffffffffffff166110b582610959565b73ffffffffffffffffffffffffffffffffffffffff161461110b576040517f08c379a0000000000000000000000000000000000000000000000000000000008152600401611102906131f1565b60405180910390fd5b6004600082815260200190815260200160002060006101000a81549073ffffffffffffffffffffffffffffffffffffffff02191690556001600360008573ffffffffffffffffffffffffffffffffffffffff1673ffffffffffffffffffffffffffffffffffffffff168152602001908152602001600020600082825403925050819055506001600360008473ffffffffffffffffffffffffffffffffffffffff1673ffffffffffffffffffffffffffffffffffffffff16815260200190815260200160002060008282540192505081905550816002600083815260200190815260200160002060006101000a81548173ffffffffffffffffffffffffffffffffffffffff021916908373ffffffffffffffffffffffffffffffffffffffff160217905550808273ffffffffffffffffffffffffffffffffffffffff168473ffffffffffffffffffffffffffffffffffffffff167fddf252ad1be2c89b69c2b068fc378daa952ba7f163c4a11628f55a4df523b3ef60405160405180910390a46112978383836001611c6c565b505050565b6112ad816112a8610e4d565b611c72565b50565b6112ba8282610a96565b61138d5760016006600084815260200190815260200160002060000160008373ffffffffffffffffffffffffffffffffffffffff1673ffffffffffffffffffffffffffffffffffffffff16815260200190815260200160002060006101000a81548160ff021916908315150217905550611332610e4d565b73ffffffffffffffffffffffffffffffffffffffff168173ffffffffffffffffffffffffffffffffffffffff16837f2f8788117e7eff1d82e926ec794901d17c78024a50270940304540a733656f0d60405160405180910390a45b5050565b61139b8282610a96565b1561146f5760006006600084815260200190815260200160002060000160008373ffffffffffffffffffffffffffffffffffffffff1673ffffffffffffffffffffffffffffffffffffffff16815260200190815260200160002060006101000a81548160ff021916908315150217905550611414610e4d565b73ffffffffffffffffffffffffffffffffffffffff168173ffffffffffffffffffffffffffffffffffffffff16837ff6391f5c32d9c69d2a47ea670b442974b53935d1edc7fd64eb21e047a839171b60405160405180910390a45b5050565b600073ffffffffffffffffffffffffffffffffffffffff168273ffffffffffffffffffffffffffffffffffffffff16036114e2576040517f08c379a00000000000000000000000000000000000000000000000000000000081526004016114d9906132ef565b60405180910390fd5b6114eb81611c25565b1561152b576040517f08c379a00000000000000000000000000000000000000000000000000000000081526004016115229061335b565b60405180910390fd5b611539600083836001611c66565b61154281611c25565b15611582576040517f08c379a00000000000000000000000000000000000000000000000000000000081526004016115799061335b565b60405180910390fd5b6001600360008473ffffffffffffffffffffffffffffffffffffffff1673ffffffffffffffffffffffffffffffffffffffff16815260200190815260200160002060008282540192505081905550816002600083815260200190815260200160002060006101000a81548173ffffffffffffffffffffffffffffffffffffffff021916908373ffffffffffffffffffffffffffffffffffffffff160217905550808273ffffffffffffffffffffffffffffffffffffffff16600073ffffffffffffffffffffffffffffffffffffffff167fddf252ad1be2c89b69c2b068fc378daa952ba7f163c4a11628f55a4df523b3ef60405160405180910390a461168c600083836001611c6c565b5050565b600061169b82610959565b90506116ab816000846001611c66565b6116b482610959565b90506004600083815260200190815260200160002060006101000a81549073ffffffffffffffffffffffffffffffffffffffff02191690556001600360008373ffffffffffffffffffffffffffffffffffffffff1673ffffffffffffffffffffffffffffffffffffffff168152602001908152602001600020600082825403925050819055506002600083815260200190815260200160002060006101000a81549073ffffffffffffffffffffffffffffffffffffffff021916905581600073ffffffffffffffffffffffffffffffffffffffff168273ffffffffffffffffffffffffffffffffffffffff167fddf252ad1be2c89b69c2b068fc378daa952ba7f163c4a11628f55a4df523b3ef60405160405180910390a46117da816000846001611c6c565b5050565b60006002600083815260200190815260200160002060009054906101000a900473ffffffffffffffffffffffffffffffffffffffff169050919050565b8173ffffffffffffffffffffffffffffffffffffffff168373ffffffffffffffffffffffffffffffffffffffff1603611889576040517f08c379a0000000000000000000000000000000000000000000000000000000008152600401611880906133c7565b60405180910390fd5b80600560008573ffffffffffffffffffffffffffffffffffffffff1673ffffffffffffffffffffffffffffffffffffffff16815260200190815260200160002060008473ffffffffffffffffffffffffffffffffffffffff1673ffffffffffffffffffffffffffffffffffffffff16815260200190815260200160002060006101000a81548160ff0219169083151502179055508173ffffffffffffffffffffffffffffffffffffffff168373ffffffffffffffffffffffffffffffffffffffff167f17307eab39ab6107e8899845ad3d59bd9653f200f220920489ca2b5937696c318360405161197a919061237b565b60405180910390a3505050565b611992848484610fa3565b61199e84848484611cf7565b6119dd576040517f08c379a00000000000000000000000000000000000000000000000000000000081526004016119d490613459565b60405180910390fd5b50505050565b6060600780546119f290612a67565b80601f0160208091040260200160405190810160405280929190818152602001828054611a1e90612a67565b8015611a6b5780601f10611a4057610100808354040283529160200191611a6b565b820191906000526020600020905b815481529060010190602001808311611a4e57829003601f168201915b5050505050905090565b606060006001611a8484611e7e565b01905060008167ffffffffffffffff811115611aa357611aa2612760565b5b6040519080825280601f01601f191660200182016040528015611ad55781602001600182028036833780820191505090505b509050600082602001820190505b600115611b38578080600190039150507f3031323334353637383961626364656600000000000000000000000000000000600a86061a8153600a8581611b2c57611b2b613479565b5b04945060008503611ae3575b819350505050919050565b60007f80ac58cd000000000000000000000000000000000000000000000000000000007bffffffffffffffffffffffffffffffffffffffffffffffffffffffff1916827bffffffffffffffffffffffffffffffffffffffffffffffffffffffff19161480611c0e57507f5b5e139f000000000000000000000000000000000000000000000000000000007bffffffffffffffffffffffffffffffffffffffffffffffffffffffff1916827bffffffffffffffffffffffffffffffffffffffffffffffffffffffff1916145b80611c1e5750611c1d82611fd1565b5b9050919050565b60008073ffffffffffffffffffffffffffffffffffffffff16611c47836117de565b73ffffffffffffffffffffffffffffffffffffffff1614159050919050565b50505050565b50505050565b611c7c8282610a96565b611cf357611c898161203b565b611c978360001c6020612068565b604051602001611ca8929190613540565b6040516020818303038152906040526040517f08c379a0000000000000000000000000000000000000000000000000000000008152600401611cea9190612426565b60405180910390fd5b5050565b6000611d188473ffffffffffffffffffffffffffffffffffffffff166122a4565b15611e71578373ffffffffffffffffffffffffffffffffffffffff1663150b7a02611d41610e4d565b8786866040518563ffffffff1660e01b8152600401611d6394939291906135cf565b6020604051808303816000875af1925050508015611d9f57506040513d601f19601f82011682018060405250810190611d9c9190613630565b60015b611e21573d8060008114611dcf576040519150601f19603f3d011682016040523d82523d6000602084013e611dd4565b606091505b506000815103611e19576040517f08c379a0000000000000000000000000000000000000000000000000000000008152600401611e1090613459565b60405180910390fd5b805181602001fd5b63150b7a0260e01b7bffffffffffffffffffffffffffffffffffffffffffffffffffffffff1916817bffffffffffffffffffffffffffffffffffffffffffffffffffffffff191614915050611e76565b600190505b949350505050565b600080600090507a184f03e93ff9f4daa797ed6e38ed64bf6a1f0100000000000000008310611edc577a184f03e93ff9f4daa797ed6e38ed64bf6a1f0100000000000000008381611ed257611ed1613479565b5b0492506040810190505b6d04ee2d6d415b85acef81000000008310611f19576d04ee2d6d415b85acef81000000008381611f0f57611f0e613479565b5b0492506020810190505b662386f26fc100008310611f4857662386f26fc100008381611f3e57611f3d613479565b5b0492506010810190505b6305f5e1008310611f71576305f5e1008381611f6757611f66613479565b5b0492506008810190505b6127108310611f96576127108381611f8c57611f8b613479565b5b0492506004810190505b60648310611fb95760648381611faf57611fae613479565b5b0492506002810190505b600a8310611fc8576001810190505b80915050919050565b60007f01ffc9a7000000000000000000000000000000000000000000000000000000007bffffffffffffffffffffffffffffffffffffffffffffffffffffffff1916827bffffffffffffffffffffffffffffffffffffffffffffffffffffffff1916149050919050565b60606120618273ffffffffffffffffffffffffffffffffffffffff16601460ff16612068565b9050919050565b60606000600283600261207b919061368c565b61208591906136ce565b67ffffffffffffffff81111561209e5761209d612760565b5b6040519080825280601f01601f1916602001820160405280156120d05781602001600182028036833780820191505090505b5090507f30000000000000000000000000000000000000000000000000000000000000008160008151811061210857612107613702565b5b60200101907effffffffffffffffffffffffffffffffffffffffffffffffffffffffffffff1916908160001a9053507f78000000000000000000000000000000000000000000000000000000000000008160018151811061216c5761216b613702565b5b60200101907effffffffffffffffffffffffffffffffffffffffffffffffffffffffffffff1916908160001a905350600060018460026121ac919061368c565b6121b691906136ce565b90505b6001811115612256577f3031323334353637383961626364656600000000000000000000000000000000600f8616601081106121f8576121f7613702565b5b1a60f81b82828151811061220f5761220e613702565b5b60200101907effffffffffffffffffffffffffffffffffffffffffffffffffffffffffffff1916908160001a905350600485901c94508061224f90613731565b90506121b9565b506000841461229a576040517f08c379a0000000000000000000000000000000000000000000000000000000008152600401612291906137a6565b60405180910390fd5b8091505092915050565b6000808273ffffffffffffffffffffffffffffffffffffffff163b119050919050565b6000604051905090565b600080fd5b600080fd5b60007fffffffff0000000000000000000000000000000000000000000000000000000082169050919050565b612310816122db565b811461231b57600080fd5b50565b60008135905061232d81612307565b92915050565b600060208284031215612349576123486122d1565b5b60006123578482850161231e565b91505092915050565b60008115159050919050565b61237581612360565b82525050565b6000602082019050612390600083018461236c565b92915050565b600081519050919050565b600082825260208201905092915050565b60005b838110156123d05780820151818401526020810190506123b5565b60008484015250505050565b6000601f19601f8301169050919050565b60006123f882612396565b61240281856123a1565b93506124128185602086016123b2565b61241b816123dc565b840191505092915050565b6000602082019050818103600083015261244081846123ed565b905092915050565b6000819050919050565b61245b81612448565b811461246657600080fd5b50565b60008135905061247881612452565b92915050565b600060208284031215612494576124936122d1565b5b60006124a284828501612469565b91505092915050565b600073ffffffffffffffffffffffffffffffffffffffff82169050919050565b60006124d6826124ab565b9050919050565b6124e6816124cb565b82525050565b600060208201905061250160008301846124dd565b92915050565b612510816124cb565b811461251b57600080fd5b50565b60008135905061252d81612507565b92915050565b6000806040838503121561254a576125496122d1565b5b60006125588582860161251e565b925050602061256985828601612469565b9150509250929050565b60008060006060848603121561258c5761258b6122d1565b5b600061259a8682870161251e565b93505060206125ab8682870161251e565b92505060406125bc86828701612469565b9150509250925092565b6000819050919050565b6125d9816125c6565b81146125e457600080fd5b50565b6000813590506125f6816125d0565b92915050565b600060208284031215612612576126116122d1565b5b6000612620848285016125e7565b91505092915050565b612632816125c6565b82525050565b600060208201905061264d6000830184612629565b92915050565b6000806040838503121561266a576126696122d1565b5b6000612678858286016125e7565b92505060206126898582860161251e565b9150509250929050565b6000602082840312156126a9576126a86122d1565b5b60006126b78482850161251e565b91505092915050565b6126c981612448565b82525050565b60006020820190506126e460008301846126c0565b92915050565b6126f381612360565b81146126fe57600080fd5b50565b600081359050612710816126ea565b92915050565b6000806040838503121561272d5761272c6122d1565b5b600061273b8582860161251e565b925050602061274c85828601612701565b9150509250929050565b600080fd5b600080fd5b7f4e487b7100000000000000000000000000000000000000000000000000000000600052604160045260246000fd5b612798826123dc565b810181811067ffffffffffffffff821117156127b7576127b6612760565b5b80604052505050565b60006127ca6122c7565b90506127d6828261278f565b919050565b600067ffffffffffffffff8211156127f6576127f5612760565b5b6127ff826123dc565b9050602081019050919050565b82818337600083830152505050565b600061282e612829846127db565b6127c0565b90508281526020810184848401111561284a5761284961275b565b5b61285584828561280c565b509392505050565b600082601f83011261287257612871612756565b5b813561288284826020860161281b565b91505092915050565b600080600080608085870312156128a5576128a46122d1565b5b60006128b38782880161251e565b94505060206128c48782880161251e565b93505060406128d587828801612469565b925050606085013567ffffffffffffffff8111156128f6576128f56122d6565b5b6129028782880161285d565b91505092959194509250565b60008060408385031215612925576129246122d1565b5b60006129338582860161251e565b92505060206129448582860161251e565b9150509250929050565b600067ffffffffffffffff82111561296957612968612760565b5b612972826123dc565b9050602081019050919050565b600061299261298d8461294e565b6127c0565b9050828152602081018484840111156129ae576129ad61275b565b5b6129b984828561280c565b509392505050565b600082601f8301126129d6576129d5612756565b5b81356129e684826020860161297f565b91505092915050565b600060208284031215612a0557612a046122d1565b5b600082013567ffffffffffffffff811115612a2357612a226122d6565b5b612a2f848285016129c1565b91505092915050565b7f4e487b7100000000000000000000000000000000000000000000000000000000600052602260045260246000fd5b60006002820490506001821680612a7f57607f821691505b602082108103612a9257612a91612a38565b5b50919050565b7f4552433732313a20617070726f76616c20746f2063757272656e74206f776e6560008201527f7200000000000000000000000000000000000000000000000000000000000000602082015250565b6000612af46021836123a1565b9150612aff82612a98565b604082019050919050565b60006020820190508181036000830152612b2381612ae7565b9050919050565b7f4552433732313a20617070726f76652063616c6c6572206973206e6f7420746f60008201527f6b656e206f776e6572206f7220617070726f76656420666f7220616c6c000000602082015250565b6000612b86603d836123a1565b9150612b9182612b2a565b604082019050919050565b60006020820190508181036000830152612bb581612b79565b9050919050565b7f4552433732313a2063616c6c6572206973206e6f7420746f6b656e206f776e6560008201527f72206f7220617070726f76656400000000000000000000000000000000000000602082015250565b6000612c18602d836123a1565b9150612c2382612bbc565b604082019050919050565b60006020820190508181036000830152612c4781612c0b565b9050919050565b7f416363657373436f6e74726f6c3a2063616e206f6e6c792072656e6f756e636560008201527f20726f6c657320666f722073656c660000000000000000000000000000000000602082015250565b6000612caa602f836123a1565b9150612cb582612c4e565b604082019050919050565b60006020820190508181036000830152612cd981612c9d565b9050919050565b7f43616c6c6572206973206e6f742061206d696e74657200000000000000000000600082015250565b6000612d166016836123a1565b9150612d2182612ce0565b602082019050919050565b60006020820190508181036000830152612d4581612d09565b9050919050565b7f4552433732313a20696e76616c696420746f6b656e2049440000000000000000600082015250565b6000612d826018836123a1565b9150612d8d82612d4c565b602082019050919050565b60006020820190508181036000830152612db181612d75565b9050919050565b7f4552433732313a2061646472657373207a65726f206973206e6f74206120766160008201527f6c6964206f776e65720000000000000000000000000000000000000000000000602082015250565b6000612e146029836123a1565b9150612e1f82612db8565b604082019050919050565b60006020820190508181036000830152612e4381612e07565b9050919050565b600081905092915050565b6000612e6082612396565b612e6a8185612e4a565b9350612e7a8185602086016123b2565b80840191505092915050565b7f2e6a736f6e000000000000000000000000000000000000000000000000000000600082015250565b6000612ebc600583612e4a565b9150612ec782612e86565b600582019050919050565b6000612ede8285612e55565b9150612eea8284612e55565b9150612ef582612eaf565b91508190509392505050565b60008190508160005260206000209050919050565b60006020601f8301049050919050565b600082821b905092915050565b600060088302612f637fffffffffffffffffffffffffffffffffffffffffffffffffffffffffffffffff82612f26565b612f6d8683612f26565b95508019841693508086168417925050509392505050565b6000819050919050565b6000612faa612fa5612fa084612448565b612f85565b612448565b9050919050565b6000819050919050565b612fc483612f8f565b612fd8612fd082612fb1565b848454612f33565b825550505050565b600090565b612fed612fe0565b612ff8818484612fbb565b505050565b5b8181101561301c57613011600082612fe5565b600181019050612ffe565b5050565b601f8211156130615761303281612f01565b61303b84612f16565b8101602085101561304a578190505b61305e61305685612f16565b830182612ffd565b50505b505050565b600082821c905092915050565b600061308460001984600802613066565b1980831691505092915050565b600061309d8383613073565b9150826002028217905092915050565b6130b682612396565b67ffffffffffffffff8111156130cf576130ce612760565b5b6130d98254612a67565b6130e4828285613020565b600060209050601f8311600181146131175760008415613105578287015190505b61310f8582613091565b865550613177565b601f19841661312586612f01565b60005b8281101561314d57848901518255600182019150602085019450602081019050613128565b8683101561316a5784890151613166601f891682613073565b8355505b6001600288020188555050505b505050505050565b7f4552433732313a207472616e736665722066726f6d20696e636f72726563742060008201527f6f776e6572000000000000000000000000000000000000000000000000000000602082015250565b60006131db6025836123a1565b91506131e68261317f565b604082019050919050565b6000602082019050818103600083015261320a816131ce565b9050919050565b7f4552433732313a207472616e7366657220746f20746865207a65726f2061646460008201527f7265737300000000000000000000000000000000000000000000000000000000602082015250565b600061326d6024836123a1565b915061327882613211565b604082019050919050565b6000602082019050818103600083015261329c81613260565b9050919050565b7f4552433732313a206d696e7420746f20746865207a65726f2061646472657373600082015250565b60006132d96020836123a1565b91506132e4826132a3565b602082019050919050565b60006020820190508181036000830152613308816132cc565b9050919050565b7f4552433732313a20746f6b656e20616c7265616479206d696e74656400000000600082015250565b6000613345601c836123a1565b91506133508261330f565b602082019050919050565b6000602082019050818103600083015261337481613338565b9050919050565b7f4552433732313a20617070726f766520746f2063616c6c657200000000000000600082015250565b60006133b16019836123a1565b91506133bc8261337b565b602082019050919050565b600060208201905081810360008301526133e0816133a4565b9050919050565b7f4552433732313a207472616e7366657220746f206e6f6e20455243373231526560008201527f63656976657220696d706c656d656e7465720000000000000000000000000000602082015250565b60006134436032836123a1565b915061344e826133e7565b604082019050919050565b6000602082019050818103600083015261347281613436565b9050919050565b7f4e487b7100000000000000000000000000000000000000000000000000000000600052601260045260246000fd5b7f416363657373436f6e74726f6c3a206163636f756e7420000000000000000000600082015250565b60006134de601783612e4a565b91506134e9826134a8565b601782019050919050565b7f206973206d697373696e6720726f6c6520000000000000000000000000000000600082015250565b600061352a601183612e4a565b9150613535826134f4565b601182019050919050565b600061354b826134d1565b91506135578285612e55565b91506135628261351d565b915061356e8284612e55565b91508190509392505050565b600081519050919050565b600082825260208201905092915050565b60006135a18261357a565b6135ab8185613585565b93506135bb8185602086016123b2565b6135c4816123dc565b840191505092915050565b60006080820190506135e460008301876124dd565b6135f160208301866124dd565b6135fe60408301856126c0565b81810360608301526136108184613596565b905095945050505050565b60008151905061362a81612307565b92915050565b600060208284031215613646576136456122d1565b5b60006136548482850161361b565b91505092915050565b7f4e487b7100000000000000000000000000000000000000000000000000000000600052601160045260246000fd5b600061369782612448565b91506136a283612448565b92508282026136b081612448565b915082820484148315176136c7576136c661365d565b5b5092915050565b60006136d982612448565b91506136e483612448565b92508282019050808211156136fc576136fb61365d565b5b92915050565b7f4e487b7100000000000000000000000000000000000000000000000000000000600052603260045260246000fd5b600061373c82612448565b91506000820361374f5761374e61365d565b5b600182039050919050565b7f537472696e67733a20686578206c656e67746820696e73756666696369656e74600082015250565b60006137906020836123a1565b915061379b8261375a565b602082019050919050565b600060208201905081810360008301526137bf81613783565b905091905056fea2646970667358221220d20794f31bd4c6b3818d4d258016f26fa1684c94c48e4825521cf60422fdcc3564736f6c63430008110033",
  "devdoc": {
    "kind": "dev",
    "methods": {
      "approve(address,uint256)": {
        "details": "See {IERC721-approve}."
      },
      "balanceOf(address)": {
        "details": "See {IERC721-balanceOf}."
      },
      "getApproved(uint256)": {
        "details": "See {IERC721-getApproved}."
      },
      "getRoleAdmin(bytes32)": {
        "details": "Returns the admin role that controls `role`. See {grantRole} and {revokeRole}. To change a role's admin, use {_setRoleAdmin}."
      },
      "grantRole(bytes32,address)": {
        "details": "Grants `role` to `account`. If `account` had not been already granted `role`, emits a {RoleGranted} event. Requirements: - the caller must have ``role``'s admin role. May emit a {RoleGranted} event."
      },
      "hasRole(bytes32,address)": {
        "details": "Returns `true` if `account` has been granted `role`."
      },
      "isApprovedForAll(address,address)": {
        "details": "See {IERC721-isApprovedForAll}."
      },
      "name()": {
        "details": "See {IERC721Metadata-name}."
      },
      "ownerOf(uint256)": {
        "details": "See {IERC721-ownerOf}."
      },
      "renounceRole(bytes32,address)": {
        "details": "Revokes `role` from the calling account. Roles are often managed via {grantRole} and {revokeRole}: this function's purpose is to provide a mechanism for accounts to lose their privileges if they are compromised (such as when a trusted device is misplaced). If the calling account had been revoked `role`, emits a {RoleRevoked} event. Requirements: - the caller must be `account`. May emit a {RoleRevoked} event."
      },
      "revokeRole(bytes32,address)": {
        "details": "Revokes `role` from `account`. If `account` had been granted `role`, emits a {RoleRevoked} event. Requirements: - the caller must have ``role``'s admin role. May emit a {RoleRevoked} event."
      },
      "safeTransferFrom(address,address,uint256)": {
        "details": "See {IERC721-safeTransferFrom}."
      },
      "safeTransferFrom(address,address,uint256,bytes)": {
        "details": "See {IERC721-safeTransferFrom}."
      },
      "setApprovalForAll(address,bool)": {
        "details": "See {IERC721-setApprovalForAll}."
      },
      "symbol()": {
        "details": "See {IERC721Metadata-symbol}."
      },
      "tokenURI(uint256)": {
        "details": "See {IERC721Metadata-tokenURI}."
      },
      "transferFrom(address,address,uint256)": {
        "details": "See {IERC721-transferFrom}."
      }
    },
    "version": 1
  },
  "userdoc": {
    "kind": "user",
    "methods": {},
    "version": 1
  },
  "storageLayout": {
    "storage": [
      {
        "astId": 414,
        "contract": "contracts/NFT/SkaleMappedERC721Token.sol:SkaleMappedERC721Token",
        "label": "_name",
        "offset": 0,
        "slot": "0",
        "type": "t_string_storage"
      },
      {
        "astId": 416,
        "contract": "contracts/NFT/SkaleMappedERC721Token.sol:SkaleMappedERC721Token",
        "label": "_symbol",
        "offset": 0,
        "slot": "1",
        "type": "t_string_storage"
      },
      {
        "astId": 420,
        "contract": "contracts/NFT/SkaleMappedERC721Token.sol:SkaleMappedERC721Token",
        "label": "_owners",
        "offset": 0,
        "slot": "2",
        "type": "t_mapping(t_uint256,t_address)"
      },
      {
        "astId": 424,
        "contract": "contracts/NFT/SkaleMappedERC721Token.sol:SkaleMappedERC721Token",
        "label": "_balances",
        "offset": 0,
        "slot": "3",
        "type": "t_mapping(t_address,t_uint256)"
      },
      {
        "astId": 428,
        "contract": "contracts/NFT/SkaleMappedERC721Token.sol:SkaleMappedERC721Token",
        "label": "_tokenApprovals",
        "offset": 0,
        "slot": "4",
        "type": "t_mapping(t_uint256,t_address)"
      },
      {
        "astId": 434,
        "contract": "contracts/NFT/SkaleMappedERC721Token.sol:SkaleMappedERC721Token",
        "label": "_operatorApprovals",
        "offset": 0,
        "slot": "5",
        "type": "t_mapping(t_address,t_mapping(t_address,t_bool))"
      },
      {
        "astId": 24,
        "contract": "contracts/NFT/SkaleMappedERC721Token.sol:SkaleMappedERC721Token",
        "label": "_roles",
        "offset": 0,
        "slot": "6",
        "type": "t_mapping(t_bytes32,t_struct(RoleData)19_storage)"
      },
      {
        "astId": 3097,
        "contract": "contracts/NFT/SkaleMappedERC721Token.sol:SkaleMappedERC721Token",
        "label": "_baseEndpoint",
        "offset": 0,
        "slot": "7",
        "type": "t_string_storage"
      }
    ],
    "types": {
      "t_address": {
        "encoding": "inplace",
        "label": "address",
        "numberOfBytes": "20"
      },
      "t_bool": {
        "encoding": "inplace",
        "label": "bool",
        "numberOfBytes": "1"
      },
      "t_bytes32": {
        "encoding": "inplace",
        "label": "bytes32",
        "numberOfBytes": "32"
      },
      "t_mapping(t_address,t_bool)": {
        "encoding": "mapping",
        "key": "t_address",
        "label": "mapping(address => bool)",
        "numberOfBytes": "32",
        "value": "t_bool"
      },
      "t_mapping(t_address,t_mapping(t_address,t_bool))": {
        "encoding": "mapping",
        "key": "t_address",
        "label": "mapping(address => mapping(address => bool))",
        "numberOfBytes": "32",
        "value": "t_mapping(t_address,t_bool)"
      },
      "t_mapping(t_address,t_uint256)": {
        "encoding": "mapping",
        "key": "t_address",
        "label": "mapping(address => uint256)",
        "numberOfBytes": "32",
        "value": "t_uint256"
      },
      "t_mapping(t_bytes32,t_struct(RoleData)19_storage)": {
        "encoding": "mapping",
        "key": "t_bytes32",
        "label": "mapping(bytes32 => struct AccessControl.RoleData)",
        "numberOfBytes": "32",
        "value": "t_struct(RoleData)19_storage"
      },
      "t_mapping(t_uint256,t_address)": {
        "encoding": "mapping",
        "key": "t_uint256",
        "label": "mapping(uint256 => address)",
        "numberOfBytes": "32",
        "value": "t_address"
      },
      "t_string_storage": {
        "encoding": "bytes",
        "label": "string",
        "numberOfBytes": "32"
      },
      "t_struct(RoleData)19_storage": {
        "encoding": "inplace",
        "label": "struct AccessControl.RoleData",
        "members": [
          {
            "astId": 16,
            "contract": "contracts/NFT/SkaleMappedERC721Token.sol:SkaleMappedERC721Token",
            "label": "members",
            "offset": 0,
            "slot": "0",
            "type": "t_mapping(t_address,t_bool)"
          },
          {
            "astId": 18,
            "contract": "contracts/NFT/SkaleMappedERC721Token.sol:SkaleMappedERC721Token",
            "label": "adminRole",
            "offset": 0,
            "slot": "1",
            "type": "t_bytes32"
          }
        ],
        "numberOfBytes": "64"
      },
      "t_uint256": {
        "encoding": "inplace",
        "label": "uint256",
        "numberOfBytes": "32"
      }
    }
  }
}